:100000000C9403020C9434020C9434020C943402C9
:100010000C9434020C9434020C9434020C94340288
:100020000C9434020C9434020C9434020C94340278
:100030000C9434020C9434020C9434020C94340268
:100040000C9434020C9434020C9434020C94340258
:100050000C9434020C9434020C9434020C94481125
:100060000C9434020C94AB140C94E1140C943402F0
:100070000C9434020C9434020C9434020C94340228
:100080000C9434020C9434020C9434020C94340218
:100090000C9434020C9434020C9434020C94340208
:1000A0000C9434020C9434020C9434020C943402F8
:1000B0000C9434020C9434020C9434020C943402E8
:1000C0000C9434020C9434020C9434020C943402D8
:1000D0000C9434020C9434020C9434020C943402C8
:1000E0000C94340209100910F50FF50FF50F0510E7
:1000F000091009106412671256125A1260129E12E9
:100100006B126F12751279127D12831287128B1285
:100110009E129112951299120C9442130C94501342
:100120000C9460120C948B120C940B150C9405100B
:100130000C9475120C9479120C949E120C94681500
:100140000C9491120C94E4130C9495120C94641377
:100150000C94C2130C9415150C947D120C94371347
:100160000C9467120C9487120C946F120C946B12FF
:100170000C94F50F0C9409100C94BB030C945612BC
:100180000C9483120C9499120C9464120C945A12CD
:100190000C94B5032020004D49464152455F5265FD
:1001A00061642829206661696C65643A20005061A9
:1001B000676520203020203120203220203300208D
:1001C0004164723D3078002056616C75653D307831
:1001D0000020496E7665727465642061636365739F
:1001E00073206269747320646964206E6F74206D7B
:1001F00061746368212000205D2000205B200020C6
:10020000004D49464152455F526561642829206688
:1002100061696C65643A20005043445F41757468BD
:10022000656E7469636174652829206661696C650F
:10023000643A2000202000202020202020200020C0
:10024000202000536563746F7220426C6F636B20D3
:100250002020302020312020322020332020203444
:10026000202035202036202037202020382020391B
:1002700020313020313120203132203133203134CF
:1002800020313520204163636573734269747300C4
:1002900044756D70696E67206D656D6F727920634E
:1002A0006F6E74656E7473206E6F7420696D706C00
:1002B000656D656E74656420666F72207468617424
:1002C000205049434320747970652E0050494343C0
:1002D00020747970653A2000436172642055494466
:1002E0003A0000000A0B02090C0D0E080703040176
:1002F00000000000000000000000000000000000FE
:1003000000000000000000000000000000001211CA
:1003100010000000000000000000000000000000CD
:10032000000000000000000001021020200808105A
:100330002040102040800201020108040201010255
:10034000040810204080804020100804020180042E
:100350000201804020100804020108040201010289
:100360000408102040800102040810204080050588
:100370000505070508080808020202020A0A08081B
:100380000404040401010101010101010303030349
:1003900003030303040707070C0C0C0C0C0C0C0CD8
:1003A0000202020206060606060606060B0B0B0BE9
:1003B0000B0B0B0B000020002300260029002C0053
:1003C0002F003200000100000301060109010000B6
:1003D0002200250028002B002E00310034000201ED
:1003E0000000050108010B01000021002400270086
:1003F0002A002D0030003300010100000401070134
:100400000A01B503151511241FBECFEFD1E2DEBFDF
:10041000CDBF00E00CBF17E0A0E0B2E0ECE0F5E3F8
:1004200000E00BBF02C007900D92AA31B107D9F7C7
:1004300028E0AAE1B7E001C01D92AD32B207E1F7B2
:1004400014E0C6E0D4E000E006C022970109FE01F6
:100450000BBF0E943718C230D10780E00807A9F708
:100460000E9459150C94841A0C94000040ED57E03A
:1004700060E070E08CE497E00E94AF1020E835E285
:1004800040E050E06CE877E08CE497E00E94C21016
:100490008CE497E00E94AC106AE172E080917D07E5
:1004A00090917E070E94D7156AE070E080E090E0AE
:1004B0000E94C11141E060E08CE497E00E942D11A0
:1004C00026E040E855E260E070E08CE897E00E94AA
:1004D00049140E944E108DE397E00E94A1076CE240
:1004E00072E08CE897E00E9408168FEF8093370740
:1004F000809338078093390780933A0780933B07AE
:1005000080933C070895DF92EF92FF920F931F9321
:10051000CF93DF931F92CDB7DEB7D82E7B01282F64
:10052000392F37FF02C02D5F3F4FA90143600DE314
:1005300017E027E337E060E6C8010E946E0B182F32
:10054000813091F067E472E08CE897E00E94D71563
:10055000612F8DE397E00E94370CBC018CE897E097
:100560000E94081683E01FC082E189839E012F5FED
:100570003F4FA7016D2D8DE397E00E94C30B182F0D
:10058000813099F06AE672E08CE897E00E94D71516
:10059000612F8DE397E00E94370CBC018CE897E057
:1005A0000E94081684E090E006C061E872E08CE8E2
:1005B00097E00E9408160F90DF91CF911F910F9145
:1005C000FF90EF90DF900895CF92DF92EF92FF922D
:1005D0000F931F93CF93DF93EC017B01D7FD03961D
:1005E0006C0123E0C22A4AE050E0BE01C330D105CD
:1005F0009CF0CE01019683709927892B69F48CE8D1
:1006000097E00E94BD1660E972E08CE897E00E94D6
:10061000081682E090E054C08CE897E00E94BD1676
:1006200065EA72E08CE897E00E9408160DE317E097
:1006300027E337E04C2D60E6C8010E946E0B182FAF
:10064000813099F067EB72E08CE897E00E94D71553
:10065000612F8DE397E00E94370CBC018CE897E096
:100660000E94081683E090E02BC020E1A7016C2FC8
:100670008DE397E00E94040CC82F813099F063ED60
:1006800072E08CE897E00E94D7156C2F8DE397E01D
:100690000E94370CBC018CE897E00E94081684E0A9
:1006A00090E00EC06BEE72E08CE897E0DF91CF91A6
:1006B0001F910F91FF90EF90DF90CF900C94081650
:1006C000DF91CF911F910F91FF90EF90DF90CF902E
:1006D0000895EF92FF920F931F93CF93DF939B01A7
:1006E000C0E0D0E0C417D507C4F57C0101968901AC
:1006F0002F5F3F4FF7017081F8016081761759F144
:100700006DEF72E08CE897E00E94D7154AE050E068
:10071000F70160818CE897E00E94EA166BE173E0D4
:100720008CE897E00E94D7154AE050E0F80160811C
:100730008CE897E00E94EA1660E273E08CE897E0AC
:100740000E94D7154AE050E0BE018CE897E00E9475
:10075000C51680E003C02196C5CF81E0DF91CF911F
:100760001F910F91FF90EF90089541E365E38DE3B2
:1007700097E00C94E605DF92EF92FF920F931F93A0
:10078000CF93DF9300D000D0CDB7DEB764EB76E037
:10079000CE0101960E945F1764E170E0CE010196E0
:1007A0000E9422178CE897E00E943713892B09F4E6
:1007B000D8C06AE070E080E090E00E94C1118CE84F
:1007C00097E00E945013833291F506E012E0C801D1
:1007D000865092407C018CE897E00E943713892B69
:1007E00061F08FE0E816F104B4F78CE897E00E941E
:1007F0005013F80181938F01EACF10922B0767E223
:1008000073E08CE897E00E94D71506E012E0F8014B
:1008100061918F018CE897E00E94E413F2E00631C9
:100820001F07A9F78CE897E00E94E0159AC082376D
:1008300009F057C000E010E0E12CF12C8AE0D82E3E
:100840008CE897E00E943713892BC9F182E0E81603
:10085000F104B4F7F801DE9E8001DF9E100D112433
:100860008CE897E00E945013080F191F8CE497E062
:100870000E94AC106BE473E080917D0790917E073D
:100880000E94D71563E573E080917D0790917E0704
:100890000E94D71565E070E080E090E00E94C111F1
:1008A0006AE070E080E090E00E94C11161E08CE4B9
:1008B00097E00E94EF10FFEFEF1AFF0AC1CF6CE53F
:1008C00073E08CE897E00E94D7154AE050E0B80149
:1008D0008CE897E00E94C516109317020093160249
:1008E00040C0682FCE0101960E94B9178CE897E0AE
:1008F0000E943713892B29F08CE897E00E9450134F
:10090000F0CF60E773E08CE897E00E94D715BE0156
:100910006F5F7F4F8CE897E00E94F61562E873E006
:10092000CE0101960E94CD17811108C068E873E0DE
:10093000CE0101960E94CD17882329F180911B07D3
:10094000811132C081E080931B076AE873E08CE874
:1009500097E00E94081664EB76E0CE0101960E94B3
:100960007517CE0101960E94F11626960FB6F894DF
:10097000DEBF0FBECDBFDF91CF911F910F91FF90D2
:10098000EF90DF90089568EF73E0CE0101960E942A
:10099000CD1781111FC06EE872E0CE0101960E9452
:1009A000CD17811117C005C010921B076AE973E0CB
:1009B000CECF6DEF73E0CE0101960E94CD1781116D
:1009C00029C066EC73E0CE0101960E94CD1781111B
:1009D00021C00FC080911A07811106C081E0809369
:1009E0001A076BEA73E0B3CF10921A0768EB73E053
:1009F000AECF69E074E0CE0101960E94CD1781115F
:100A000021C069EC73E0CE0101960E94CD178111DF
:100A100019C029C062E174E08CE897E00E94D71504
:100A200006E012E0F80161918F018CE897E00E94E6
:100A3000E413F2E006311F07A9F78CE897E00E9463
:100A4000E01589CF64E274E08CE897E00E94D71546
:100A500060911802709119024AE050E08CE897E02A
:100A60000E94BD1678CF6CE374E0CE0101960E941F
:100A7000CD17882319F06CEC73E069CF66ED73E055
:100A8000CE0101960E94CD17811165CF6CED73E008
:100A9000CE0101960E94CD1781115DCF60EE73E00B
:100AA0008CE897E00E94D715BE016F5F7F4F8CE8FE
:100AB00097E00E94F6154FCFCF93DF930E94BB03C0
:100AC0008DE397E00E942610882309F46EC08DE321
:100AD00097E00E944410811108C062E474E08CE841
:100AE00097E0DF91CF910C94081668E674E08CE8EB
:100AF00097E00E94D715CEE3D7E0699140E150E03E
:100B00008CE897E00E94EA1687E0C834D807A9F776
:100B10008CE897E00E94E01580911B07882341F044
:100B200066E072E080911602909117020E94E40242
:100B300080911A07882329F06DE377E0CB010E94AA
:100B40009D0F65E277E080911802909119020E9452
:100B500083024AE050E06CE974E085E297E00E948D
:100B60006903882319F062E774E002C065E874E065
:100B70008CE897E00E940816C5E2D7E069918CE8FE
:100B800097E00E94E41387E0C533D807B9F78CE8F3
:100B900097E00E94E0158DE397E00E942B0B8DE318
:100BA00097E0DF91CF910C94BF0BDF91CF91089527
:100BB0008EBD00000DB407FEFDCF8EB508958CB537
:100BC0008F7D8CBD8CB5837F8CBD08950F931F9353
:100BD000CF93DF931F92CDB7DEB78C01862FF8013C
:100BE000648761E049830E949F1261E0F801848577
:100BF0000E94D8124981F801458761E0842F0E9444
:100C00009F1260E0F80185850E94D812C8010F90FC
:100C1000DF91CF911F910F910C94DF05EF92FF921E
:100C20001F93CF93DF931F92CDB7DEB77C01162FB2
:100C300060E0FC01848549830E94D812812F8E7761
:100C40000E94D8054981842F0E94D80561E0F701F0
:100C500084850F90DF91CF911F91FF90EF900C94BE
:100C6000D812CF92DF92EF92FF920F931F93CF9300
:100C7000DF931F921F92CDB7DEB78C01E62EF42EC4
:100C800060E0FC01848529833A830E94D8128E2D6E
:100C90008E770E94D8052981E22EC22E3A81D32E6A
:100CA0008C2D8E198F1530F4F60181916F010E9401
:100CB000D805F6CF61E0F80184850F900F90DF91A1
:100CC000CF911F910F91FF90EF90DF90CF900C94F8
:100CD000D8121F93CF93DF93EC01162F60E08C8521
:100CE0000E94D812812F8E7780680E94D80580E0FC
:100CF0000E94D805182F61E08C850E94D812812FA0
:100D0000DF91CF911F9108957F928F929F92AF9222
:100D1000BF92CF92DF92EF92FF920F931F93CF93E8
:100D2000DF936C01842EE901442309F453C0162F8C
:100D30001E77106860E0FC0184850E94D8128A94B6
:100D4000812F0E94D8057C2EEC2EFD2EAA24A39480
:100D5000B12C8E2D8719881528F581111AC0002312
:100D6000C1F0802F912C883048F49501082E01C0E5
:100D7000220F0A94EAF7922A8F5FF5CF812F0E9403
:100D8000D805992D9095288192238921982B9883B5
:100D900005C0812F0E94D805F7018083FFEFEF1A6D
:100DA000FF0AD7CFC80DD11D80E00E94D8058883E7
:100DB00061E0F6018485DF91CF911F910F91FF9043
:100DC000EF90DF90CF90BF90AF909F908F907F90EB
:100DD0000C94D812DF91CF911F910F91FF90EF905B
:100DE000DF90CF90BF90AF909F908F907F900895AD
:100DF000EF92FF921F93CF93DF931F92CDB7DEB791
:100E00007C01162F49830E9469064981482B612F76
:100E1000C7010F90DF91CF911F91FF90EF900C943D
:100E20000E06EF92FF921F93CF93DF931F92CDB7E1
:100E3000DEB77C01162F49830E94690649814095DF
:100E40004823612FC7010F90DF91CF911F91FF9031
:100E5000EF900C940E06DF92EF92FF920F931F9388
:100E6000CF93DF93EC018B01D42E790140E062E057
:100E70000E940E0644E06AE0CE010E940E0640E8A1
:100E800064E1CE010E94F80698014D2D62E1CE0189
:100E90000E94310643E062E0CE010E940E0608E89F
:100EA00013E16AE0CE010E94690682FD05C001508F
:100EB0001109B9F784E012C040E062E0CE010E945F
:100EC0000E0664E4CE010E946906F701808362E4A5
:100ED000CE010E946906F701818381E0DF91CF9105
:100EE0001F910F91FF90EF90DF900895CF93DF93C4
:100EF000EC014FE062E00E940E0662E370E080E0E9
:100F000090E00E94C11162E0CE010E94690684FD5A
:100F1000FACFDF91CF910895CF93DF93EC0168E290
:100F20000E946906982F9370933041F0482F4360D8
:100F300068E2CE01DF91CF910C940E06DF91CF9144
:100F40000895CF93DF93EC018D850E940E13892BBA
:100F500059F461E08D850E94D81262E370E080E070
:100F600090E00E94C11103C0CE010E94760740E8C4
:100F700064E5CE010E940E0649EA66E5CE010E94B4
:100F80000E0643E068E5CE010E940E0648EE6AE5D3
:100F9000CE010E940E0640E46AE2CE010E940E06D7
:100FA0004DE362E2CE010E940E06CE01DF91CF91A9
:100FB0000C948C072F923F925F926F927F928F9248
:100FC0009F92AF92BF92CF92DF92EF92FF920F93D8
:100FD0001F93CF93DF9300D01F92CDB7DEB73C01B4
:100FE000962E542E302E082DA114B10419F0F501BF
:100FF000408101C040E0242EF0E10F9F200C11241D
:1010000040E062E0C3012B833C830E940E064FE761
:1010100068E0C3010E940E0640E864E1C3010E943B
:10102000F8062B813C81432D62E1C3010E94310609
:10103000422D6AE1C3010E940E06492D62E0C30100
:101040000E940E068CE0981205C040E86AE1C301D8
:101050000E94F80690ED292E97E0392E68E0C30132
:101060000E946906982F952139F480FD62C0E1E065
:101070002E1A310899F75DC06CE0C3010E94690621
:10108000982E837109F057C0E114F104F1F0C114F6
:10109000D104D9F064E1C3010E946906482FF6012A
:1010A0008081841708F449C04083970162E1C3013D
:1010B0000E94840668E1C3010E946906182F177018
:1010C000A114B10411F0F501108393FC38C0E114B0
:1010D000F104B9F1C114D104A1F1898D882389F1FA
:1010E000F6014081413019F4143019F420C0423027
:1010F00010F488E027C01111FCCF42509E012F5FF1
:101100003F4FB701C3010E942B078130D9F4F6018C
:101110008081E80EF11CF701329790818981981344
:10112000E8CF319690818A819813E3CF0AC089E095
:1011300009C084E007C082E005C085E003C083E009
:1011400001C081E00F900F900F900F90DF91CF9131
:101150001F910F91FF90EF90DF90CF90BF90AF90D5
:101160009F908F907F906F905F903F902F90089509
:101170008F92AF92BF92CF92DF92EF92FF920F9336
:101180001F93AF928C2C570168017901042F9B01AA
:1011900040E36CE00E94DA070F901F910F91FF90DF
:1011A000EF90DF90CF90BF90AF908F9008956F92A7
:1011B0007F928F92AF92BF92CF92DF92EF92FF9287
:1011C0000F931F93CF93DF93CDB7DEB764970FB61E
:1011D000F894DEBF0FBECDBF3C01042F122FE42ECA
:1011E000F12CA701CE0101960E946B1A21E030E09C
:1011F0002C0F3D1F2E0D3F1D402FBE016F5F7F4FF7
:10120000C3010E942B07813041F582E18C8B1B8A40
:101210000E5F1F92812CCE0143965C0101966C01FA
:1012200043977C019C0140E36CE0C3010E94DA0714
:101230000F90112311F0843079F0813071F48C8992
:10124000813041F48B89843029F489818A3021F0FE
:1012500089E003C082E001C081E064960FB6F89493
:10126000DEBF0FBECDBFDF91CF911F910F91FF90D9
:10127000EF90DF90CF90BF90AF908F907F906F9066
:1012800008954F925F926F927F928F929F92AF924A
:10129000CF92EF92FF920F931F93CF93DF931F9202
:1012A0001F92CDB7DEB73C016A832A01490141157F
:1012B000510531F1F9018081823010F140E86CE193
:1012C000C3010E94110787E08983A12CC12CCE01A4
:1012D00001967C018401920141E0BE016E5F7F4F67
:1012E000C3010E94B808813061F4F401808182302A
:1012F00011F082E006C089818111FBCF81E001C03D
:1013000085E00F900F90DF91CF911F910F91FF908B
:10131000EF90CF90AF909F908F907F906F905F9065
:101320004F9008959A01AB0166E20C9441092F9207
:101330003F924F925F926F927F928F929F92AF9265
:10134000BF92CF92DF92EF92FF920F931F93CF93B2
:10135000DF93CDB7DEB72D970FB6F894DEBF0FBE83
:10136000CDBF3C012B01342E20E5241708F40BC11E
:1013700040E86CE10E941107BB24B39432E0B3163D
:1013800091F043E0B416E1F081E0B81200C183E9C6
:1013900089833320D1F041E0D2018C91853008F46B
:1013A00040E0D12C17C085E98983332081F041E0EA
:1013B000F2018081883008F440E073E0D72E0AC043
:1013C00087E9898366E0D62E04C0D12C02C053E0A1
:1013D000D52E40E0532DF8EFDF9E500D112457FD20
:1013E00050E0442321F088E88B8373E001C072E071
:1013F00091E0852F877009F490E0852F859585957C
:101400008595890F21F4442311F1585F20C04423AE
:1014100011F063E001C064E0861708F4682F80E0F3
:1014200090E092012D0D311DE72FE80FA1E0B0E013
:10143000AC0FBD1FAE0FB11DFD01D901A80FB91F23
:101440001196AC91A0830196861770F3DCCF43E030
:10145000242E503204F1B0E7BA838C819B81892716
:101460009D8189279E8189278F839E01285F3F4F19
:1014700047E0BE016F5F7F4FC3015D870E942B076E
:101480005D85813009F0CEC01B862A86FE01379625
:101490004F0179E01EC0952F97709B87252F2595CA
:1014A0002595259582E0820F392FF0E18F9F300D31
:1014B00011243A8371E0911101C070E0780F882403
:1014C0008394912C8C0E9D1E880E911C87E0821BAC
:1014D0008A87CB844C2D4295407F4C0D6AE1C30135
:1014E0005D877C870E940E06A12C9E01255F3F4FE1
:1014F00079018E01065F1F4F94017C85472FBE0145
:101500006F5F7F4FC3010E94B8085D858330A1F5EE
:101510006CE1C3010E9469065D8585FD36C0482FD8
:101520004F7109F440E2842F90E0252F332727FDE7
:101530003095281739075CF5542F01978770992744
:10154000242F2595259525952F5F31E0811101C028
:1015500030E0230FE1E0F0E0EC0FFD1FE20FF11DA2
:10156000A1E0B0E002C0AA0FBB1F8A95E2F7CD014F
:101570009081982B90836DCF813009F053C0503209
:1015800044F450E268CF87E04DC083E04BC086E072
:1015900049C08B81883819F052E044E002C053E022
:1015A00043E080E090E092012D0D311DF901E80F3C
:1015B000F91F652F680FA1E0B0E0AC0FBD1FA60FAB
:1015C000B11D6C9161830196841780F38A85833005
:1015D00031F58B85811123C09E012D5F3F4F41E086
:1015E000B401C3010E942B078130E1F49B81F40117
:1015F0008181981316C09C818281981312C08081CA
:1016000082FF02C0B394BACED2011B968C931B9773
:101610008B2D880F8B0D8F5F8C9381E003C082E050
:1016200001C088E02D960FB6F894DEBF0FBECDBF87
:10163000DF91CF911F910F91FF90EF90DF90CF90AE
:10164000BF90AF909F908F907F906F905F904F90E2
:101650003F902F9008958F929F92AF92CF92EF92EA
:10166000FF920F931F93CF93DF9300D01F92CDB7BC
:10167000DEB74C0180E589831A829E012D5F3F4FC2
:1016800042E0BE016F5F7F4FC4010E942B07813093
:10169000B1F4A12CC12CE12CF12C00E010E020E0F1
:1016A00030E044E0BE016F5F7F4FC4010E94B80884
:1016B000843021F0813019F482E001C081E00F9084
:1016C0000F900F900F90DF91CF911F910F91FF908E
:1016D000EF90CF90AF909F908F9008958F92AF92A0
:1016E000BF92CF92DF92EF92FF920F931F93CF930F
:1016F000DF93CDB7DEB72C970FB6F894DEBF0FBEE1
:10170000CDBFF80169834A8389019E012D5F3F4F58
:10171000AE01475F5F4FD8016D918D01D9016D9387
:101720009D01A417B507B9F72181298722812A874E
:1017300023812B8724812C871F92812CA12CB12CF3
:10174000C12CD12CE12CF12C0CE09E012F5F3F4FDE
:1017500040E16EE00E94DA070F902C960FB6F894E5
:10176000DEBF0FBECDBFDF91CF911F910F91FF90D4
:10177000EF90DF90CF90BF90AF908F90089548E0AA
:1017800060E10C9411078F929F92AF92CF92EF92EB
:10179000FF920F931F93CF93DF934C01EA018901CE
:1017A0002097E9F0F90180818231C8F080E38883D5
:1017B00069839A012E5F3F4F42E0BE01C4010E943F
:1017C0002B07813069F4AA24A394C12CE12CF12CBD
:1017D0009E0144E0BE01C4010E94B80801C085E03A
:1017E000DF91CF911F910F91FF90EF90CF90AF902D
:1017F0009F908F9008956115710521F0413110F48B
:101800000C94D70887E00895DF92EF92FF920F9330
:101810001F93CF93DF931F921F92CDB7DEB78C013A
:101820007A01D22E41155105B9F08FE08217A0F44C
:1018300080EA89836A8320E042E0BE016F5F7F4FC8
:10184000C8010E94D708813041F420E04D2DB70136
:10185000C8010E94FB0B01C087E00F900F90DF9141
:10186000CF911F910F91FF90EF90DF9008956150FD
:10187000693048F4E62FF0E0EE0FFF1FED56F94F08
:101880008081918108958CEA94E0089562FD21C0E1
:10189000693079F030F4613091F068F06830D9F057
:1018A00010C0603170F0623140F0683151F485E071
:1018B000089583E0089586E0089587E0089588E01C
:1018C000089565FD0AC0862F807466FF07C082E018
:1018D00008958FEF089584E0089581E008956530BC
:1018E000E9F078F4623049F128F4613019F58AEBB7
:1018F00094E00895633079F06430E1F48DE195E08F
:101900000895673089F068F0683089F06F3F91F48E
:1019100080E795E0089586E095E0089588E295E0F7
:10192000089583E395E0089585E595E0089581E6BF
:1019300095E0089583E995E008958EED94E008958B
:101940002F923F924F925F926F927F928F929F92CF
:10195000AF92BF92CF92DF92EF92FF920F931F93BD
:10196000CF93DF93CDB7DEB76B970FB6F894DEBF9A
:101970000FBECDBF5C014B013A01422E4FE1421731
:1019800030F0322E330C330C54E05B8F0CC067E226
:10199000621708F4E1C1322E329410EF312280E850
:1019A000380E90E19B8F5B8C5A9422242394D52C83
:1019B000D30C2220B1F0E9E0E41518F060EA75E0FC
:1019C00002C061EA75E08CE897E00E94D7154AE012
:1019D00050E0642D8CE897E00E94EA166FE372E015
:1019E00002C067E372E08CE897E00E94A615F9E078
:1019F000FD1530F443E64D1530F462EA75E005C09C
:101A000060EA75E002C061EA75E08CE897E00E9448
:101A1000D7154AE050E06D2D8CE897E00E94EA1659
:101A200064E372E08CE897E00E94A615222019F189
:101A300084019301432D60E6C5010E946E0B182FAF
:101A40008130C9F068E172E08CE897E00E94A61549
:101A50001150193048F4E12FF0E0EE0FFF1FED5662
:101A6000F94F6081718102C06CEA74E08CE897E004
:101A70000E94081671C152E15F8B9E01295E3F4FA3
:101A8000AE014F5F5F4F6D2DC5010E94C30B182F34
:101A90008130C9F061E072E08CE897E00E94A61501
:101AA0001150193048F4E12FF0E0EE0FFF1FED5612
:101AB000F94F6081718102C06CEA74E08CE897E0B4
:101AC0000E94081646C1CE0101966C01F12C8601D8
:101AD000F6018081803118F464EA75E002C062EAA0
:101AE00075E08CE897E00E94D715FFEFCF1ADF0A68
:101AF00040E150E0F80160818CE897E00E94EA162E
:101B00008F2D8370833031F46FEF71E08CE897E0B4
:101B10000E94A615F394F0E1FF12D9CF222009F418
:101B20007DC04885242F30E064E0359527956A957F
:101B3000E1F7A985BA2FBF708A2F90E074E09595E0
:101B400087957A95E1F76F81E62FEF70F0E0E095E9
:101B5000F095EF70FF272E173F07D1F4EB2FF0E041
:101B600070E050EF652754E0769567955A95E1F758
:101B7000E617F70781F44F7050E0409550954F708D
:101B8000552761E0688F8417950739F4188E05C0D2
:101B9000E1E0E88F02C0F1E0F88F682F61704A2F12
:101BA0004170498F1A8EE98DFA8DEE0FFF1FFA8F63
:101BB000E98F6E2BA90141705527440F551F440F23
:101BC000551F642B6B8BA90142705527440F551F7D
:101BD00081FB552750F9452BB2704B2B4C8B4A2F6C
:101BE000447050E055954795522F5470542B82FB0A
:101BF000442740F9542B5D8B287033273595279562
:101C000013E0969587951A95E1F7282BA870B0E018
:101C1000B595A795B595A7952A2B2E8BFB8DF430FE
:101C2000B9F0852D65E00E94ED17D82E43E08417AA
:101C300081F0282F30E0852D992787FD909501961A
:101C400065E070E00E94FB172617370711F449C0C2
:101C5000D52C6BEF71E08CE897E00E94A615E3E1CC
:101C6000F0E0EC0FFD1FED0DF11DC080C2FA6627FC
:101C700060F94AE050E070E08CE897E00E94BD1601
:101C800062EA75E08CE897E00E94D715C1FA6627F2
:101C900060F94AE050E070E08CE897E00E94BD16E1
:101CA00062EA75E08CE897E00E94D7156C2D6170B0
:101CB0004AE050E070E08CE897E00E94BD1667EFC4
:101CC00071E08CE897E00E94A615688D662331F0DC
:101CD00061ED71E08CE897E00E94A61553E0D516FF
:101CE00099F1E3E1F0E0EC0FFD1FED0DF11D8081B6
:101CF000813011F0863041F52C818B8190E0A0E09D
:101D0000B0E07C01DD24CC24F22A8981C82A8A81B2
:101D1000D82A67EC71E08CE897E00E94A61520E1D4
:101D200030E0B701A6018CE897E00E9473166FEBD4
:101D300071E08CE897E00E94A61540E150E06D85C7
:101D40008CE897E00E94EA168CE897E00E94E01584
:101D5000212C5A9457FE2BCE6B960FB6F894DEBF0B
:101D60000FBECDBFDF91CF911F910F91FF90EF90EC
:101D7000DF90CF90BF90AF909F908F907F906F90AB
:101D80005F904F903F902F900895DF92EF92FF92D7
:101D90000F931F93CF93DF93EC018B017901435095
:101DA000433068F0CE010E942B0BCE01DF91CF9122
:101DB0001F910F91FF90EF90DF900C94BF0BE42FD9
:101DC000F0E0E057F94FD080DD2061F363E472E08A
:101DD0008CE897E00E94E415DA94D7FCE3CF2D2D30
:101DE000A701B801CE010E94A00CF6CF9F92AF923E
:101DF000BF92CF92DF92EF92FF920F931F93CF93F8
:101E0000DF93CDB7DEB763970FB6F894DEBF0FBE92
:101E1000CDBF7C016EEA71E08CE897E00E94E4158A
:101E2000D12C82E1A82EAB8A9E012D5E3F4FAE01E0
:101E30004F5F5F4F6D2DC7010E94C30B182F81307C
:101E4000C9F067E971E08CE897E00E94A61511508F
:101E5000193048F4E12FF0E0EE0FFF1FED56F94F77
:101E60006081718102C06CEA74E08CE897E00E94A6
:101E7000081651C0C12C1C2D1D0D1A3018F062EA35
:101E800075E002C061EA75E08CE897E00E94D71522
:101E90004AE050E0612F8CE897E00E94EA1664E97E
:101EA00071E08CE897E00E94A6159C2C990C990C87
:101EB000B12C0B2D090D10E0E1E0F0E0EC0FFD1F5F
:101EC000E00FF11F8081803118F464EA75E002C0F0
:101ED00062EA75E08CE897E00E94D715E1E0F0E057
:101EE000EC0FFD1FE00FF11F40E150E060818CE836
:101EF00097E00E94EA16B39484E0B812DACF8CE837
:101F000097E00E94E015C39484E0C812B4CFD80EC5
:101F100080E1D81288CF63960FB6F894DEBF0FBE6B
:101F2000CDBFDF91CF911F910F91FF90EF90DF9088
:101F3000CF90BF90AF909F900895BF92CF92DF92C5
:101F4000EF92FF920F931F93CF93DF9300D000D0B7
:101F5000CDB7DEB77C016B0168ED72E08CE897E0ED
:101F60000E94A615B12CF6018081B816D0F4860126
:101F70000B0D111DF8018181803118F464EA75E0C0
:101F800002C062EA75E08CE897E00E94D71540E154
:101F900050E0F80161818CE897E00E94EA16B39462
:101FA000E2CF8CE897E00E94E015F6016385C70157
:101FB0000E94460CB82E6CEC72E08CE897E00E9410
:101FC000A6156B2DC7010E946F0CBC018CE897E031
:101FD0000E9408160B2D10E0F8013197E830F1054A
:101FE000F0F4EE58FF4F0C9431189FEF99839A83C9
:101FF0009B839C839D839E839E012F5F3F4F4B2D30
:10200000B601C7010E94C50E0AC0C7010E94F60EA4
:1020100006C060E972E08CE897E00E94E4158CE865
:1020200097E00E94E015C7010E942B0B26960FB681
:10203000F894DEBF0FBECDBFDF91CF911F910F91FE
:10204000FF90EF90DF90CF90BF900895CF93DF93F4
:1020500000D0CDB7DEB722E02B83AE014D5F5F4FDE
:10206000BE016F5F7F4F0E949209813031F091E095
:10207000833009F090E0892F01C081E00F900F902C
:102080000F90DF91CF91089540E0BC010E94970925
:1020900091E0813009F090E0892F0895CF93CFB778
:1020A000F89480914B07811127C0E3EAF3E0849113
:1020B000EDE5F3E09491E82FF0E0EE0FFF1FE8511B
:1020C000FC4FA591B4918C91892321F461E085E3C3
:1020D0000E94D81261E085E30E949F128CB5806156
:1020E0008CBD8CB580648CBD61E084E30E949F123E
:1020F00061E083E30E949F1280914B078F5F809382
:102100004B07CFBFCF9108950F931F93CF93DF93CA
:10211000EC01662359F00E94921169837A838B83C4
:102120009C83DF91CF911F910F9108950E9492118E
:1021300009811A812B813C81601B710B820B930BEF
:10214000623371058105910530F763E070E080E04E
:1021500090E00E94C111EACF60E00C948410FC0171
:1021600013AA14AA15AA16AA118212821382148223
:10217000411551056105710521F0CB01BA010C949F
:10218000C1110895FB01BA01A901DC01D296FC93AB
:10219000EE93D19726E0CF010C9449141F93CF936F
:1021A000DF93EC01162F65EA76E089A99AA90E94CF
:1021B000D7154AE050E0612F89A99AA90E94EA1632
:1021C0006CEA76E089A99AA90E94D71562E370E0CB
:1021D00080E090E0DF91CF911F910C94C1111F938B
:1021E000CF93DF93EC01162F8D81882389F189A984
:1021F0009AA9DC01ED91FC910480F581E02D1995FF
:10220000892BA9F307C02637310519F12835310587
:1022100009F41D8289A99AA9DC01ED91FC91048041
:10222000F581E02D19951816190694F489A99AA933
:10223000DC01ED91FC910680F781E02D19959C0160
:10224000332723363105F9F6612FCE010E94CE10D7
:1022500083E6DF91CF911F9108950F931F93CF9342
:10226000DF931F92CDB7DEB78C01662349F081E082
:10227000F801858360E0C80149830E94EF1049811D
:10228000F80145830F90DF91CF911F910F91089531
:102290001F920F920FB60F9211242F933F938F939B
:1022A0009F93AF93BF938091840790918507A091EE
:1022B0008607B09187073091830723E0230F2D37DE
:1022C00020F40196A11DB11D05C026E8230F02963A
:1022D000A11DB11D209383078093840790938507E8
:1022E000A0938607B093870780918807909189070C
:1022F000A0918A07B0918B070196A11DB11D809313
:10230000880790938907A0938A07B0938B07BF91A2
:10231000AF919F918F913F912F910F900FBE0F9092
:102320001F9018952FB7F8946091840770918507D6
:1023300080918607909187072FBF08953FB7F89443
:102340008091880790918907A0918A07B0918B07A7
:1023500026B5A89B05C02F3F19F00196A11DB11D00
:102360003FBF6627782F892F9A2F620F711D811D1D
:10237000911D42E0660F771F881F991F4A95D1F77C
:102380000895CF92DF92EF92FF92CF93DF936B018C
:102390007C010E949E11EB01C114D104E104F104FF
:1023A00089F00E94EC170E949E116C1B7D0B683E09
:1023B000734090F381E0C81AD108E108F108C851D0
:1023C000DC4FEACFDF91CF91FF90EF90DF90CF907D
:1023D0000895789484B5826084BD84B5816084BD9D
:1023E00085B5826085BD85B5816085BDEEE6F0E08E
:1023F000808181608083E1E8F0E0108280818260EA
:102400008083808181608083E0E8F0E0808181606A
:102410008083E1EBF0E0808184608083E0EBF0E09A
:10242000808181608083E1E9F0E080818260808347
:10243000808181608083E0E9F0E080818160808339
:10244000E1EAF0E080818260808380818160808326
:10245000E0EAF0E0808181608083E1E2F1E0808168
:1024600082608083808181608083E0E2F1E080810E
:1024700081608083EAE7F0E08081846080838081EE
:102480008260808380818160808380818068808396
:102490001092C100089590E0FC013197E231F105FE
:1024A00008F04CC0E658FF4F0C9431188091800022
:1024B0008F7703C0809180008F7D80938000089586
:1024C00080918000877FF9CF84B58F7702C084B573
:1024D0008F7D84BD08958091B0008F7703C0809177
:1024E000B0008F7D8093B0000895809190008F7729
:1024F00007C0809190008F7D03C080919000877FFE
:102500008093900008958091A0008F7707C08091FC
:10251000A0008F7D03C08091A000877F8093A000E2
:102520000895809120018F7707C0809120018F7DD1
:1025300003C080912001877F809320010895CF936D
:10254000DF9390E0FC01E85DFC4F2491FC01E2592F
:10255000FC4F8491882349F190E0880F991FFC017A
:10256000E851FC4FA591B49182539C4FFC01C59159
:10257000D4919FB7611108C0F8948C912095822363
:102580008C93888182230AC0623051F4F8948C9134
:10259000322F309583238C938881822B888304C0CB
:1025A000F8948C91822B8C939FBFDF91CF910895EB
:1025B0000F931F93CF93DF931F92CDB7DEB7282FD2
:1025C00030E0F901EE51FD4F8491F901E85DFC4FD7
:1025D0001491F901E259FC4F04910023C9F08823BA
:1025E00021F069830E944B126981E02FF0E0EE0F29
:1025F000FF1FE253FC4FA591B4919FB7F8948C91C3
:10260000611103C01095812301C0812B8C939FBF62
:102610000F90DF91CF911F910F910895CF93DF938A
:10262000282F30E0F901EE51FD4F8491F901E85D6A
:10263000FC4FD491F901E259FC4FC491CC2391F0A5
:1026400081110E944B12EC2FF0E0EE0FFF1FEC54B3
:10265000FC4FA591B4912C912D2381E090E021F4C1
:1026600080E002C080E090E0DF91CF910895FC010E
:10267000818D228D90E0805C9F4F821B91098F732A
:1026800099270895FC01918D828D981731F0828DE4
:10269000E80FF11D858D90E008958FEF9FEF08956D
:1026A000FC01918D828D981761F0828DDF01A80F5A
:1026B000B11D5D968C91928D9F5F9F73928F90E07C
:1026C00008958FEF9FEF08958BE095E1892B41F0FE
:1026D0008BEB93E0892B21F00E940B15811125C013
:1026E00080E090E0892B41F080E090E0892B21F0A0
:1026F0000E94000081111CC080E090E0892B41F015
:1027000080E090E0892B21F00E940000811113C02D
:1027100080E090E0892BA1F080E090E0892B81F0AF
:102720000E94000081110AC008950E94BB03D8CF07
:102730000E940000E1CF0E940000EACF0C9400004C
:102740000895FC01848DDF01A80FB11DA35ABF4F6E
:102750002C91848D90E001968F739927848FA689A0
:10276000B7892C93A089B1898C9180648C93938DC7
:10277000848D981306C00288F389E02D80818F7DB7
:1027800080830895CF93DF93EC01888D8823C9F06F
:10279000EA89FB89808185FD05C0A889B9898C916A
:1027A00086FD0FC00FB607FCF5CF808185FFF2CF05
:1027B000A889B9898C9185FFEDCFCE010E94A11324
:1027C000E7CFDF91CF910895CF92DF92FF920F93E1
:1027D0001F93CF93DF931F92CDB7DEB76C0181E0DB
:1027E000D60158968C9358975B969C915B975C9614
:1027F0008C915C97981307C05096ED91FC9151977E
:10280000808185FD2EC0F601038D10E00F5F1F4F04
:102810000F731127F02EF601848DF81211C00FB638
:1028200007FCF9CFD6015096ED91FC91519780812C
:1028300085FFF1CFC60169830E94A1136981EBCFA7
:10284000838DE80FF11DE35AFF4F6083D6015B963D
:102850000C935B975296ED91FC9153978081806227
:102860000CC0D6015696ED91FC9157976083509617
:10287000ED91FC91519780818064808381E090E0AC
:102880000F90DF91CF911F910F91FF90DF90CF902C
:102890000895BF92CF92DF92EF92FF92CF93DF9392
:1028A000EC016A017B01B22EE889F98982E080831C
:1028B000411581EE580761057105A1F060E079E0EE
:1028C0008DE390E0A70196010E940F182150310975
:1028D000410951095695479537952795211580E16E
:1028E000380798F0E889F989108260E874E88EE189
:1028F00090E0A70196010E940F182150310941096B
:1029000051095695479537952795EC85FD85308378
:10291000EE85FF852083188EEC89FD89B082EA89D7
:10292000FB89808180618083EA89FB89808188605E
:102930008083EA89FB89808180688083EA89FB89BA
:1029400080818F7D8083DF91CF91FF90EF90DF902A
:10295000CF90BF9008951F920F920FB60F9211243F
:102960000BB60F922F938F939F93EF93FF93E0916A
:102970009C07F0919D078081E091A207F091A30749
:1029800082FD12C090818091A5078F5F8F73209187
:10299000A607821751F0E091A507F0E0E457F84F41
:1029A000958F8093A50701C08081FF91EF919F9142
:1029B0008F912F910F900BBE0F900FBE0F901F9015
:1029C00018951F920F920FB60F9211240BB60F920B
:1029D0002F933F934F935F936F937F938F939F9327
:1029E000AF93BF93EF93FF938CE897E00E94A113FE
:1029F000FF91EF91BF91AF919F918F917F916F91D7
:102A00005F914F913F912F910F900BBE0F900FBE92
:102A10000F901F9018958CE897E00E94371321E0E3
:102A2000892B09F420E0822F089510928F071092CD
:102A30008E0788EE93E0A0E0B0E08093900790933B
:102A40009107A0939207B093930781E097E090934A
:102A50008D0780938C0785EC90E090939907809385
:102A6000980784EC90E090939B0780939A0780EC02
:102A700090E090939D0780939C0781EC90E0909369
:102A80009F0780939E0782EC90E09093A10780932C
:102A9000A00786EC90E09093A3078093A207109282
:102AA000A5071092A6071092A7071092A8070895ED
:102AB00008950E94E9110E9458150E943602C4E64A
:102AC000D3E10E945C052097E1F30E946413F9CFE3
:102AD000CF92DF92EF92FF920F931F93CF93DF93EA
:102AE0007C016A01EB0100E010E00C151D0571F09E
:102AF0006991D701ED91FC910190F081E02DC70122
:102B00001995892B19F00F5F1F4FEFCFC801DF9187
:102B1000CF911F910F91FF90EF90DF90CF9008958C
:102B20006115710581F0DB010D900020E9F7AD0121
:102B300041505109461B570BDC01ED91FC9102807D
:102B4000F381E02D199480E090E00895EF92FF92D8
:102B50000F931F93CF93DF938C017B01C0E0D0E0F4
:102B6000F701EC0FFD1F6491662359F0F801A08175
:102B7000B181ED91FC91C8011995892B11F0219635
:102B8000EFCFCE01DF91CF911F910F91FF90EF908A
:102B90000895DC01ED91FC91DB0114964D915C915F
:102BA00015976D917C910280F381E02D19940C941E
:102BB0009015DC01ED91FC910190F081E02D1994CC
:102BC00062EB76E00C9490150F931F93CF93DF93F5
:102BD000EC010E94A6158C01CE010E94E015800F29
:102BE000911FDF91CF911F910F9108950F931F9324
:102BF000CF93DF93EC010E94C9158C01CE010E9496
:102C0000E015800F911FDF91CF911F910F910895D3
:102C10000F931F93CF93DF93EC010E9490158C01CB
:102C2000CE010E94E015800F911FDF91CF911F917F
:102C30000F9108958F929F92AF92BF92CF92DF92A1
:102C4000EF92FF920F931F93CF93DF93CDB7DEB731
:102C5000A1970FB6F894DEBF0FBECDBF7C01C42E86
:102C6000E52FCB01D22E19A221E02D1510F02AE07C
:102C7000D22E8E010F5D1F4F8D2C912CA12CB12CCB
:102C80006C2D7E2FA50194010E940F188C2DD29ED1
:102C900080191124015011098A3014F4805D01C09B
:102CA000895CF8018083211531054105510521F02A
:102CB000C22EE32FCA01E4CFB801C7010E949015CC
:102CC000A1960FB6F894DEBF0FBECDBFDF91CF91B6
:102CD0001F910F91FF90EF90DF90CF90BF90AF903A
:102CE0009F908F900895CF92DF92EF92FF920F9373
:102CF0001F93CF93DF93EC016A017B01211531050E
:102D000079F4E881F9810190F081E02D642FDF9161
:102D1000CF911F910F91FF90EF90DF90CF9019947A
:102D20002A303105E9F477FF1AC06DE20E94D91507
:102D30008C0144275527BA014C195D096E097F099A
:102D40002AE0CE010E941A16800F911FDF91CF91C9
:102D50001F910F91FF90EF90DF90CF9008952AE0A0
:102D6000B701A601CE01DF91CF911F910F91FF9086
:102D7000EF90DF90CF900C941A169A01AB01662762
:102D800057FD6095762F0C9473160F931F93CF9376
:102D9000DF93EC019A01AB01662757FD6095762F12
:102DA0000E9473168C01CE010E94E015800F911FC6
:102DB000DF91CF911F910F9108952115310541F4B5
:102DC000DC01ED91FC910190F081E02D642F1994CC
:102DD0000C941A169A01462F50E060E070E00C94B3
:102DE000DD16FC01808191810C94F318CF93DF9361
:102DF000EC0188819981009711F00E94F3181982E3
:102E000018821D821C821B821A82DF91CF91089545
:102E10000F931F93CF93DF93EC018B016F5F7F4F75
:102E2000888199810E948219009731F09983888363
:102E30001B830A8381E001C080E0DF91CF911F9165
:102E40000F910895CF93DF93EC0188819981892BAD
:102E500029F08A819B818617970760F4CE010E9432
:102E60000817882341F08C819D81892B19F4E88112
:102E7000F981108281E0DF91CF910895EF92FF9266
:102E80000F931F93CF93DF93EC017B018A01BA016B
:102E90000E942217811104C0CE010E94F61607C0BD
:102EA0001D830C83B701888199810E947D1ACE0110
:102EB000DF91CF911F910F91FF90EF900895FC014A
:102EC000118210821382128215821482611571059B
:102ED00059F0FB0101900020E9F7AF014150510981
:102EE000461B570B0C943E170895CF93DF93EC01CC
:102EF0006115710561F0FB0101900020E9F7AF0158
:102F000041505109461B570B0E943E1702C00E94B8
:102F1000F616CE01DF91CF910895EF92FF920F93B5
:102F20001F93CF93DF93EC017B010C811D81611511
:102F3000710511F480E016C04115510591F0040FA0
:102F4000151FB8010E9422178823A1F32881398117
:102F50008C819D81B701820F931F0E947D1A1D8372
:102F60000C8381E0DF91CF911F910F91FF90EF9043
:102F70000895CF93DF931F921F92CDB7DEB7698379
:102F80001A8241E050E0BE016F5F7F4F0E948D17B3
:102F90000F900F90DF91CF910895FC01248135812E
:102FA000232B31F421E061157105A1F0FB0108C06C
:102FB000FC01808191816115710531F421E0FC01F2
:102FC0008081882339F005C00E94741A21E0892B82
:102FD00009F020E0822F0895089587FB082E062629
:102FE00087FD819567FD61950E943B180EF49195D0
:102FF00007FC8195089597FB072E16F4009407D0DF
:1030000077FD09D00E94471807FC05D03EF4909543
:1030100081959F4F0895709561957F4F0895A1E226
:103020001A2EAA1BBB1BFD010DC0AA1FBB1FEE1F42
:10303000FF1FA217B307E407F50720F0A21BB30B8D
:10304000E40BF50B661F771F881F991F1A9469F709
:1030500060957095809590959B01AC01BD01CF0165
:103060000895EE0FFF1F0590F491E02D199407903D
:10307000F691E02D1994991B79E004C0991F9617D9
:1030800008F0961B881F7A95C9F780950895AA1BAA
:10309000BB1B51E107C0AA1FBB1FA617B70710F043
:1030A000A61BB70B881F991F5A95A9F78095909575
:1030B000BC01CD010895CF93DF938230910510F4C8
:1030C00082E090E0E0912B08F0912C0820E030E0C5
:1030D000A0E0B0E0309739F140815181481759079D
:1030E000B8F04817590771F482819381109729F03D
:1030F00013969C938E9312972CC090932C088093D8
:103100002B0827C02115310531F04217530718F05D
:10311000A901DB0101C0EF019A01BD01DF010280BD
:10312000F381E02DD7CF21153105F9F0281B390B9C
:103130002430310580F48A819B816115710521F06D
:10314000FB019383828304C090932C0880932B0807
:10315000FE01329644C0FE01E20FF31F819391936A
:1031600022503109398328833AC0209129083091AF
:103170002A08232B41F4209102023091030230935C
:103180002A0820932908209100023091010221157C
:10319000310541F42DB73EB740910402509105022C
:1031A000241B350BE0912908F0912A08E217F30758
:1031B000A0F42E1B3F0B2817390778F0AC014E5FA7
:1031C0005F4F2417350748F04E0F5F1F50932A08B2
:1031D000409329088193919302C0E0E0F0E0CF0191
:1031E000DF91CF910895CF93DF93009709F487C0C3
:1031F000FC01329713821282C0912B08D0912C08C7
:10320000209781F420813181280F391F809129086E
:1032100090912A088217930779F5F0932A08E09392
:1032200029086DC0DE0120E030E0AE17BF0750F482
:1032300012964D915C9113979D014115510509F12D
:10324000DA01F3CFB383A28340815181840F951FAC
:103250008A179B0771F48D919C911197840F951F8C
:1032600002969183808312968D919C9113979383FC
:1032700082832115310529F4F0932C08E0932B0863
:103280003EC0D9011396FC93EE9312974D915D9138
:10329000A40FB51FEA17FB0779F480819181840F91
:1032A000951F0296D90111969C938E9382819381EA
:1032B00013969C938E931297E0E0F0E08A819B81B5
:1032C000009719F0FE01EC01F9CFCE01029628819A
:1032D0003981820F931F2091290830912A082817DD
:1032E000390769F4309729F410922C0810922B08B2
:1032F00002C013821282D0932A08C0932908DF915A
:10330000CF9108956F927F928F929F92AF92BF92CA
:10331000CF92DF92EF92FF920F931F93CF93DF93A1
:10332000EC01CB01209781F4DF91CF911F910F9198
:10333000FF90EF90DF90CF90BF90AF909F908F90D5
:103340007F906F900C945B18FE01E60FF71F9E01B3
:1033500022503109E217F30708F4ACC0D9010D91EE
:103360001C91119706171707B8F00530110508F4DE
:103370009FC0A801445051094617570708F498C048
:1033800002501109061B170B019311936D937C9347
:10339000CF010E94F3188CC05B01A01AB10A4E0144
:1033A000800E911EA0912B08B0912C08612C712CDD
:1033B00060E070E0109709F449C0A815B905C9F597
:1033C000ED90FC901197670142E0C40ED11CCA1425
:1033D000DB0478F147018A189B08640142E0C40EBF
:1033E000D11C1296BC9012971396AC91B5E0CB16F7
:1033F000D10440F0B282A38391828082D9018D935F
:103400009C9309C00E5F1F4F0E0D1F1DF901118304
:103410000083EB2DFA2F6115710531F0DB01139656
:10342000FC93EE93129744C0F0932C08E0932B0882
:103430003FC06D917C9111976616770608F43B01A9
:10344000BD0112960D90BC91A02DB4CF60912908BA
:1034500070912A0868157905E9F468167906D0F4A0
:1034600040910002509101024115510541F44DB7C0
:103470005EB76091040270910502461B570BE4177A
:10348000F507C0F4F0932A08E0932908F901918325
:1034900080830EC00E945B187C01009759F0A80140
:1034A000BE010E946B1ACE010E94F318C70104C02E
:1034B000CE0102C080E090E0DF91CF911F910F918B
:1034C000FF90EF90DF90CF90BF90AF909F908F9044
:1034D0007F906F900895FB01DC0102C001900D9276
:1034E00041505040D8F70895FB01DC018D910190C7
:1034F00080190110D9F3990B0895FB01DC010190AB
:0C3500000D920020E1F70895F894FFCF31
:10350C0000002D0880003732385A657374417061A1
:10351C0072745F5F5F0032003D00564D4450565F41
:10352C00317C315F564D4450560D0A005363616E29
:10353C002061204D494641524520436C61737369AB
:10354C00632063617264005043445F417574686525
:10355C006E7469636174652829206661696C6564A1
:10356C00202872656164293A20004D494641524534
:10357C005F726561642829206661696C65643A2014
:10358C0000626C6F636B20776173207265616400FD
:10359C00206973206120747261696C657220626CA1
:1035AC006F636B3A00206973206120646174612041
:1035BC00626C6F636B3A005043445F41757468658D
:1035CC006E7469636174652829206661696C656431
:1035DC003A20004D49464152455F5772697465283F
:1035EC0029206661696C65643A2000626C6F636BBC
:1035FC0020776173207772697474656E00417574FD
:10360C0068656E7469636174696F6E204D6973735C
:10361C006D617463683A20413D200020423D2000DA
:10362C00205B695D3D20003135202B204E554C4CE4
:10363C002042797465732052656365697665643AD6
:10364C0020284153434949293A2000564D445045BE
:10365C005F31005F564D4450450D0A005265616460
:10366C0020426C6F636B204E756D6265723A200060
:10367C00537472696E672052656365697665643A46
:10368C00200077726974650077004361726420577B
:10369C00726974696E67204F6E00436172642057C3
:1036AC00726974696E67204F6666004361726420AC
:1036BC0044756D70204F6E00436172642044756DCB
:1036CC0070204F666600777300776E0053656E74DA
:1036DC00206279746500636865636B0073646100D4
:1036EC004552524F5220434F4D4D414E4420554E62
:1036FC004B4E4F574E3A200064756D7000777269CF
:10370C007465537472696E670077726974654E756F
:10371C006D00577269746520537472696E67206905
:10372C00733A2000577269746520426C6F636B208A
:10373C004E756D6265722069733A200073656E6414
:10374C006200536F6D657468696E672057656E749F
:10375C002057726F6E67205768656E2052656164E2
:10376C00696E672055494400436172642049443AAC
:10377C002000436172642041757468656E746963DE
:10378C00617465640043617264204E6F74204175EE
:10379C007468656E7469636174656400476F6F6407
:1037AC006C75636B3A295F5F5F5F5F00556E6B6E84
:1037BC006F776E206572726F7200504943432063BD
:1037CC006F6D706C69616E742077697468204953F1
:1037DC004F2F4945432031343434332D3400504974
:1037EC00434320636F6D706C69616E7420776974EC
:1037FC00682049534F2F4945432031383039322006
:10380C00284E464329004D4946415245204D696E8C
:10381C00692C20333230206279746573004D49462F
:10382C0041524520314B42004D49464152452034CE
:10383C004B42004D494641524520556C7472616CA7
:10384C0069676874206F7220556C7472616C69675B
:10385C0068742043004D494641524520506C7573A5
:10386C00004D494641524520544E5033585858004B
:10387C0053414B20696E64696361746573205549CB
:10388C0044206973206E6F7420636F6D706C657467
:10389C00652E00556E6B6E6F776E207479706500B7
:1038AC0020202000203000537563636573732E0055
:1038BC004572726F7220696E20636F6D6D756E69E3
:1038CC00636174696F6E2E00436F6C6C69737369FE
:1038DC006F6E2064657465637465642E0054696D45
:1038EC00656F757420696E20636F6D6D756E69639D
:1038FC006174696F6E2E0041206275666665722078
:10390C006973206E6F742062696720656E6F7567CE
:10391C00682E00496E7465726E616C206572726FF0
:10392C007220696E2074686520636F64652E205365
:10393C00686F756C64206E6F742068617070656E52
:10394C002E00496E76616C696420617267756D65D5
:10395C006E742E00546865204352435F4120646F9F
:10396C006573206E6F74206D617463682E00412046
:10397C004D4946415245205049434320726573706E
:10398C006F6E6465642077697468204E414B2E001D
:10399C00051028A705B005C805DD05F70513064277
:1039AC000654066E06564D4450435F005F564D4418
:1039BC0050430D0A004572726F723A20417474655F
:1039CC006D707420746F2073657420612072656152
:1039DC00642D6F6E6C79207661726961626C652002
:1039EC006F7220646174612074797065206E6F74DD
:1039FC0020737570706F727465640D0A000000009E
:103A0C0000E4136815371350134213C2136E616E22
:0A3A1C0000696E66006F7666000018
:00000001FF
