:100000000C9417020C9448020C9448020C94480279
:100010000C9448020C9448020C9448020C94480238
:100020000C9448020C9448020C9448020C94480228
:100030000C9448020C9448020C9448020C94480218
:100040000C9448020C94EC090C9448020C9448025D
:100050000C9448020C9448020C9448020C94A71B80
:100060000C9448020C94151F0C944B1F0C944802DE
:100070000C9448020C9448020C9448020C944802D8
:100080000C941A0A0C9448020C9448020C944802EE
:100090000C9448020C9448020C9448020C942619C3
:1000A0000C9448020C9448020C94480A0C944802A0
:1000B0000C9448020C9448020C9448020C94760A62
:1000C0000C9448020C9448020C9448020C94480288
:1000D0000C9448020C9448020C9448020C94480278
:1000E0000C9448024817481734173417341744172C
:1000F00048174817CE1CD11CC01CC41CCA1C081DA4
:10010000D51CD91CDF1CE31CE71CED1CF11CF51CE5
:10011000081DFB1CFF1C031D0C94751F0C94AC1DCB
:100120000C94ED170C9434170C94CE1D0C944417BA
:100130000C94BA1D0C94D51C0C94C41C0C94031D77
:100140000C94B30C0C9492040C94CB170C948E0466
:100150000C94FF1C0C941B180C94E71C0C947F1F30
:100160000C94FB1C0C9448170C94A11D0C94081DB6
:100170000C94DE170C94D11C0C94DF1C0C94841886
:100180000C94D21F0C944E1E0C94C01C0C942C1E6C
:100190000C94E31C0C94CE1C0C94EE170C94CA1C0B
:1001A0000C9447040C94C3170C94F11C0C94ED1C94
:1001B0000C94F51C0C94D91C2020004D494641524A
:1001C000455F526561642829206661696C65643AFF
:1001D000200050616765202030202031202032200F
:1001E000203300204164723D3078002056616C75E8
:1001F000653D30780020496E7665727465642061D3
:100200006363657373206269747320646964206E2C
:100210006F74206D61746368212000205D200020D0
:100220005B200020004D49464152455F52656164A4
:100230002829206661696C65643A20005043445F58
:1002400041757468656E74696361746528292066F8
:1002500061696C65643A2000202000202020202065
:1002600020200020202000536563746F7220426CB0
:100270006F636B202020302020312020322020335B
:100280002020203420203520203620203720202018
:1002900038202039203130203131202031322031B6
:1002A000332031342031352020416363657373423C
:1002B0006974730044756D70696E67206D656D6F4C
:1002C000727920636F6E74656E7473206E6F742024
:1002D000696D706C656D656E74656420666F722003
:1002E00074686174205049434320747970652E000E
:1002F0005049434320747970653A20004361726429
:10030000205549443A0000000A0B02090C0D0E0862
:1003100007030401000000000000000000000000CE
:1003200000000000000000000000000000000000CD
:10033000000012111000000000000000000000008A
:10034000000000000000000000000000010210207A
:1003500020080810204010204080020102010804FB
:10036000020101020408102040808040201008048F
:1003700002018004020180402010080402010804E8
:10038000020101020408102040800102040810202C
:100390004080050505050705080808080202020255
:1003A0000A0A080804040404010101010101010111
:1003B0000303030303030303040707070C0C0C0CDC
:1003C0000C0C0C0C020202020606060606060606C5
:1003D0000B0B0B0B0B0B0B0B00002000230026005C
:1003E00029002C002F00320000010000030106014B
:1003F000090100002200250028002B002E003100FA
:10040000340002010000050108010B010000210079
:10041000240027002A002D003000330001010000D5
:10042000040107010A01470484187F1F8E04112468
:100430001FBECFEFD1E2DEBFCDBF00E00CBF19E0A1
:10044000A0E0B2E0E8EDFCE400E00BBF02C00790E2
:100450000D92AE3DB107D9F72CE0AEEDB9E001C089
:100460001D92AB36B207E1F714E0CCE2D4E000E035
:1004700006C022970109FE010BBF0E940A24C63262
:10048000D10780E00807A9F70E94C31F0C945A26E1
:100490000C94000026E040E855E260E070E08AEC51
:1004A0009BE00E94B31E0E948D178DE59AE00E948A
:1004B000E00E60E272E08AEC9BE00E9472208FEF17
:1004C0008093570A8093580A8093590A80935A0A56
:1004D00080935B0A80935C0A67E070E083E29AE0B5
:1004E0000E946F0B60E085E00E94091D61E08DE0D5
:1004F0000E94091D61E086E00E94091D60E084E021
:100500000E94091D61E08BE00E94091D61E08CE002
:100510000E94091D61E08AE00E94091D61E08DE0F2
:100520000E94091D60E08DE00E94421D8BE09AE070
:100530000E94B31A6AE070E08BE09AE00E940A1B06
:1005400085E00E94781D019739F48BE09AE00E94C3
:100550001D1B6BE372E00AC08BE09AE00E94A11AB7
:100560008BE09AE00E949D1A65E572E08AEC9BE0C0
:100570000E9472208BEF99E00E94B70C8BEF99E0FC
:100580000E94500C6FE672E08BEF99E00E944120D0
:100590008FEE99E00E94B70C8FEE99E00E94500C0C
:1005A0006FE772E08FEE99E00E9441206FE872E001
:1005B0008AEC9BE00C947220CF93DF9300D000D0A4
:1005C000CDB7DEB78BE09AE00E94D61A882389F077
:1005D0006BE07AE0CE0101960E94ED1ABE016F5FDA
:1005E0007F4F8AEC9BE00E946020CE0101960E9422
:1005F0005E228BE09AE00E94D61A26960FB6F894F7
:10060000DEBF0FBECDBFDF91CF9108951092090AD2
:100610001092080A8BE09AE00E94D31A882329F0EE
:100620008BE09AE00E941D1B04C08BE09AE00E94C0
:100630005E1B0C94DC02DF92EF92FF920F931F93EC
:10064000CF93DF931F92CDB7DEB7D82E7B01282F33
:10065000392F37FF02C02D5F3F4FA90143600DE5E1
:100660001AE027E53AE060E6C8010E94AD12182FB3
:10067000813091F062EA72E08AEC9BE00E944120B6
:10068000612F8DE59AE00E947613BC018AEC9BE015
:100690000E94722083E01FC082E189839E012F5F48
:1006A0003F4FA7016D2D8DE59AE00E940213182F90
:1006B000813099F065EC72E08AEC9BE00E94412069
:1006C000612F8DE59AE00E947613BC018AEC9BE0D5
:1006D0000E94722084E090E000C00F90DF91CF91E3
:1006E0001F910F91FF90EF90DF900895CF92DF92CE
:1006F000EF92FF920F931F93CF93DF93EC017B0157
:10070000D7FD03966C0123E0C22A4AE050E0BE0107
:10071000C330D1059CF0CE01019683709927892BB7
:1007200069F48AEC9BE00E9427216CED72E08AEC70
:100730009BE00E94722082E090E054C08AEC9BE033
:100740000E94272161EF72E08AEC9BE00E947220F8
:100750000DE51AE027E53AE04C2D60E6C8010E945D
:10076000AD12182F813099F063E073E08AEC9BE0C2
:100770000E944120612F8DE59AE00E947613BC0112
:100780008AEC9BE00E94722083E090E02BC020E185
:10079000A7016C2F8DE59AE00E944313C82F81308A
:1007A00099F06FE173E08AEC9BE00E9441206C2F8E
:1007B0008DE59AE00E947613BC018AEC9BE00E94D2
:1007C000722084E090E00EC067E373E08AEC9BE067
:1007D000DF91CF911F910F91FF90EF90DF90CF901D
:1007E0000C947220DF91CF911F910F91FF90EF90A9
:1007F000DF90CF900895EF92FF920F931F93CF93C6
:10080000DF939B01C0E0D0E0C417D507C4F57C019D
:10081000019689012F5F3F4FF7017081F8016081D8
:10082000761759F169E473E08AEC9BE00E9441205D
:100830004AE050E0F70160818AEC9BE00E9454217D
:1008400067E673E08AEC9BE00E9441204AE050E0BA
:10085000F80160818AEC9BE00E9454216CE673E011
:100860008AEC9BE00E9441204AE050E0BE018AEC05
:100870009BE00E942F2180E003C02196C5CF81E03C
:10088000DF91CF911F910F91FF90EF900895CF923C
:10089000DF92EF92FF920F931F9341E365E38DE5A3
:1008A0009AE00E94250D83E29AE00E94A40A4091FA
:1008B000230A5091240A6091250A87E8C82ED12C7A
:1008C0009AE0E92EF12C06E010E025E030E08BE024
:1008D0009AE00E94571A00E022E040E16EE38BEFBD
:1008E00099E00E94230C22E040E16DE38FEE99E055
:1008F0000E94230C2CE04BE06AE08CEE99E00E9411
:100900000D0C26E04BE063E08EED99E01F910F9116
:10091000FF90EF90DF90CF900C94100D87E19AE05C
:100920000C945E22CF92DF92EF92FF920F931F936F
:10093000CF93DF9300D000D0CDB7DEB761ED79E083
:10094000CE0101960E94CC2264E170E0CE010196B6
:100950000E948F228AEC9BE00E94A11D892B09F442
:1009600020C16AE070E080E090E00E94201C8AECE8
:100970009BE00E94BA1D833291F50CE012E0C801A1
:100980008C5092407C018AEC9BE00E94A11D892B37
:1009900061F08FE0E816F104B4F78AEC9BE00E9466
:1009A000BA1DF80181938F01EACF10924B0A63E7D9
:1009B00073E08AEC9BE00E9441200CE012E0F80119
:1009C00061918F018AEC9BE00E944E1EF2E00C3197
:1009D0001F07A9F78AEC9BE00E944A20E2C08532FB
:1009E000C1F48AEC9BE00E9414226B017C0167E950
:1009F00073E08AEC9BE00E9441204AE050E0B6019F
:100A00008AEC9BE00E942F21D0921F02C0921E020E
:100A1000C8C08E35C1F48AEC9BE00E9414226B01A1
:100A20007C016BEA73E08AEC9BE00E9441204AE083
:100A300050E0B6018AEC9BE00E942F21D0921D026B
:100A4000C0921C02AEC0843209F06BC000E010E01E
:100A50008AEC9BE00E94A11D892B89F08AEC9BE027
:100A6000033011054CF40E94BA1DF801EA5CF54F01
:100A700080830F5F1F4FECCF0E94BA1DE9CFF801B2
:100A8000EA5CF54F10824AE050E0B8018AEC9BE046
:100A90000E94272166E37AE08AEC9BE00E947220A4
:100AA0008091360A992787FD9095C09724E6289F64
:100AB000B001299F700D11248091370A992787FD75
:100AC0009095C0974AE0489F9001499F300D1124AE
:100AD000620F731F8091380A992787FD9095C09700
:100AE000680F791F70930B0260930A0283E29AE009
:100AF0000E94A80B60EC73E08AEC9BE00E9441200E
:100B000060910A0270910B024AE050E08AEC9BE08F
:100B10000E9427216FED73E08AEC9BE00E94722017
:100B200040C0682FCE0101960E9446238AEC9BE0CC
:100B30000E94A11D892B29F08AEC9BE00E94BA1D1E
:100B4000F0CF61EE73E08AEC9BE00E944120BE0191
:100B50006F5F7F4F8AEC9BE00E94602063EF73E041
:100B6000CE0101960E945A23811108C069EF73E0FB
:100B7000CE0101960E945A23882359F180913B0AA5
:100B8000811122C081E080933B0A6BEF73E08AEC15
:100B90009BE00E94722061ED79E0CE0101960E94F7
:100BA0000223CE0101960E945E2226960FB6F8948B
:100BB000DEBF0FBECDBFDF91CF911F910F91FF9090
:100BC000EF90DF90CF90089510923B0A6BE074E0B5
:100BD000DECF62E974E0CE0101960E945A238111B2
:100BE00008C063E572E0CE0101960E945A23882373
:100BF00079F080913A0A811106C081E080933A0A27
:100C00006CE174E0C4CF10923A0A69E274E0BFCF9D
:100C100067E974E0CE0101960E945A23811108C051
:100C200067E374E0CE0101960E945A238823C1F045
:100C30006AE374E08AEC9BE00E9441200CE012E041
:100C4000F80161918F018AEC9BE00E944E1EF2E058
:100C50000C311F07A9F78AEC9BE00E944A209BCF2A
:100C600063EA74E0CE0101960E945A23811108C004
:100C70006CE474E0CE0101960E945A23882389F027
:100C80006FE474E08AEC9BE00E94412060911E02B8
:100C900070911F024AE050E08AEC9BE00E942721FD
:100CA0007ACF6CEA74E0CE0101960E945A2381113A
:100CB00008C067E674E0CE0101960E945A2388239B
:100CC00019F069E674E063CF61EB74E0CE01019640
:100CD0000E945A23811119C06AE774E0CE0101967F
:100CE0000E945A23811111C06FE675E0CE01019672
:100CF0000E945A2381111DC063E377E0CE01019663
:100D00000E945A23811115C003C066EB74E03FCFE7
:100D100067EC74E0CE0101960E945A2381113CC019
:100D20006FE874E0CE0101960E945A23811134C00D
:100D300048C06CEC74E08AEC9BE00E94412086E0A5
:100D40000E94781D019719F46CE774E002C060E816
:100D500074E08AEC9BE00E94412063E874E08AEC36
:100D60009BE00E9441204AE050E066E070E08AEC9F
:100D70009BE00E94272161EE76E08AEC9BE00E94D6
:100D8000722086E00E94781D61E0892B09F060E006
:100D900086E00E94421DFFCE65ED74E08AEC9BE088
:100DA0000E94722067EF74E08AEC9BE00E94722040
:100DB00061E075E08AEC9BE00E9472206FE375E0D1
:100DC000E6CE65E775E08AEC9BE00E944120BE011B
:100DD0006F5F7F4F8AEC9BE00E946020DCCECF9259
:100DE000DF92EF92FF920F931F93CF93DF930E94B6
:100DF000F11B6B017C018091320A9091330AA09122
:100E0000340AB091350AA7019601281B390B4A0B09
:100E10005B0BDA01C901853F9140A105B10510F1D5
:100E2000C092320AD092330AE092340AF092350A24
:100E30000E9492040E94DC02882341F061E08BE072
:100E40000E94421D8BE09AE00E94F81A8BE09AE023
:100E50000E94C01A882311F061E001C060E08CE0BC
:100E60000E94421D84E00E94781D019721F080912C
:100E70000A0A882361F180912E0A90912F0AA0918D
:100E8000300AB091310AA7019601281B390B4A0B91
:100E90005B0BDA01C901853F9140A105B105B8F0AE
:100EA00080910A0A811108C16DE875E08AEC9BE027
:100EB0000E94722081E080930A0A0E94F11B6093D5
:100EC0002A0A70932B0A80932C0A90932D0A8BE0A8
:100ED0009AE00E94D31A882321F18BE09AE00E94C5
:100EE000D01A81111EC08BE09AE00E94C01A88239C
:100EF00009F46DC11092090A8091080A81113CC160
:100F000066EB75E08AEC9BE00E947220C092260A94
:100F1000D092270AE092280AF092290A81E0809371
:100F2000080A8DE59AE00E946517882309F48AC1B2
:100F30006DE476E08AEC9BE00E9472208DE59AE0F9
:100F40000E94831781110EC06CE676E08AEC9BE06C
:100F5000DF91CF911F910F91FF90EF90DF90CF9095
:100F60000C94722062E976E08AEC9BE00E944120BA
:100F70004AE050E060915D0A8AEC9BE00E945421B7
:100F80000EE51AE0C0E0D0E080915D0A90E0C8175D
:100F9000D9075CF4F80161918F0140E150E08AECDF
:100FA0009BE00E9454212196EFCF8AEC9BE00E94A7
:100FB0004A2080913B0A882341F06CE072E08091E6
:100FC0001C0290911D020E94760380913A0A8823A8
:100FD000C1F16CE976E08AEC9BE00E947220CFE3DD
:100FE000D0E067ED76E08AEC9BE00E9441204AE089
:100FF00050E0BE018AEC9BE00E94272166ED76E07E
:101000008AEC9BE00E94412065E47AE0CE010E94D8
:101010001B0305E41AE0F80161918F018AEC9BE063
:101020000E944E1EFAE005351F07A9F78AEC9BE0E7
:101030000E944A202197A8F66DE57AE0CB010E9434
:10104000DC166AED76E08AEC9BE00E94722065E493
:101050007AE080911E0290911F020E941B034AE0D9
:1010600050E06FE077E085E49AE00E94FB0388237C
:1010700049F065EE76E08AEC9BE00E9472200E94C7
:10108000060306C068EF76E08AEC9BE00E947220BF
:101090008AEC9BE00E944A208DE59AE00E946A1249
:1010A0008DE59AE0DF91CF911F910F91FF90EF9026
:1010B000DF90CF900C94FE1284E00E94781D892B63
:1010C00009F005CF6BEA75E08AEC9BE00E944120B5
:1010D00080912A0A90912B0AA0912C0AB0912D0A96
:1010E000B701A601481B590B6A0B7B0B2AE030E0C5
:1010F0008AEC9BE00E94472163EB75E08AEC9BE061
:101100000E94722080912A0A90912B0AA0912C0AA9
:10111000B0912D0AA7019601281B390B4A0B5B0BD6
:10112000DA01C901893B9B40A105B105C0F08BE004
:101130009AE00E94D01A811109C08BE09AE00E94C7
:10114000A51A61E08DE00E94421D0BC060E08DE0B9
:101150000E94421D8BE09AE00E94B31A02C00E94D6
:101160000603C0922E0AD0922F0AE092300AF09223
:10117000310A10920A0AABCE8091260A9091270A72
:10118000A091280AB091290AC81AD90AEA0AFB0ACA
:1011900041E6C4164AEED406E104F10408F4C1CED7
:1011A0008BE00E94781D892B09F0BBCE6CED75E0B9
:1011B0008AEC9BE00E9472206EEE75E08AEC9BE068
:1011C0000E94722061E08BE00E94421DAACE109224
:1011D000080A8091070A811104C060E08BE00E9438
:1011E000421D8091090A811112C061E276E08AEC09
:1011F0009BE00E947220C092260AD092270AE092B9
:10120000280AF092290A81E08093090A8ACE809107
:10121000260A9091270AA091280AB091290AC81A93
:10122000D90AEA0AFB0A55ECC51659E0D506E104CD
:10123000F10408F476CE8BE09AE00E941D1B109218
:10124000090A6FCEDF91CF911F910F91FF90EF9020
:10125000DF90CF900895CF92DF92EF92FF920F939D
:101260001F93CF93DF936C018B017A01EC01C4597A
:10127000D54F888187FF04C0FB011182108223C0F3
:101280002CE02C9DC0012D9D900D11242881AC01D6
:10129000420F511D27FD5A9520916B0A30E04217ED
:1012A00053078CF42881AC01420F511D27FD5A953C
:1012B0009A01FA01EE0FFF1FE20FF31FE059F54FFD
:1012C000208126FD19C088818F5F88838CE08C9DEA
:1012D00090018D9D300D11248881A901480F511D69
:1012E00087FD5A9580916B0A90E048175907B4F42E
:1012F00088818C303CF112C02881820F911D27FD1E
:101300009A95FC01EE0FFF1FE80FF91FE059F54F0A
:10131000808160E08F730E94421DD5CFF8018081EB
:101320009181049680349C4918F480E49CE904C0BF
:10133000F801808191810496F701918380838FEF7A
:10134000888341C0F801808191814881B901640F8F
:10135000711D47FD7A95AB01FB01EE0FFF1FE40FF6
:10136000F51FE059F54F41815281840F951FF70118
:10137000918380838881A901480F511D87FD5A956B
:10138000FA01EE0FFF1FE40FF51FE059F54F8081C2
:1013900086FF19C08881280F311D87FD3A95F90114
:1013A000EE0FFF1FE20FF31FE059F54F808161E060
:1013B0008F73DF91CF911F910F91FF90EF90DF908E
:1013C000CF900C94421DDF91CF911F910F91FF9010
:1013D000EF90DF90CF9008951F920F920FB60F926B
:1013E00011240BB60F922F933F934F935F936F93FC
:1013F0007F938F939F93AF93BF93EF93FF9348E8AF
:1014000050E064E870E081E090E00E942B09FF91D9
:10141000EF91BF91AF919F918F917F916F915F916C
:101420004F913F912F910F900BBE0F900FBE0F90D9
:101430001F9018951F920F920FB60F9211240BB6A2
:101440000F922F933F934F935F936F937F938F935D
:101450009F93AF93BF93EF93FF9348E950E064E904
:1014600070E082E090E00E942B09FF91EF91BF9124
:10147000AF919F918F917F916F915F914F913F912C
:101480002F910F900BBE0F900FBE0F901F901895CD
:101490001F920F920FB60F9211240BB60F922F933B
:1014A0003F934F935F936F937F938F939F93AF93EC
:1014B000BF93EF93FF9348EA50E064EA70E083E063
:1014C00090E00E942B09FF91EF91BF91AF919F9106
:1014D0008F917F916F915F914F913F912F910F90DD
:1014E0000BBE0F900FBE0F901F9018951F920F927A
:1014F0000FB60F9211240BB60F922F933F934F9379
:101500005F936F937F938F939F93AF93BF93EF936B
:10151000FF9348E251E064E271E080E090E00E94D5
:101520002B09FF91EF91BF91AF919F918F917F9187
:101530006F915F914F913F912F910F900BBE0F9044
:101540000FBE0F901F90189520916B0A2033A0F4C6
:1015500031E0320F30936B0AFC012083822F90E040
:10156000FC01EE0FFF1FE80FF91FE059F54F88EB64
:101570009BE09283818308952FEFFC0120830895DF
:10158000DF92EF92FF920F931F93CF93DF93EC01C3
:10159000D62E7A0189018881803308F068C061E025
:1015A0008D2D0E94091D8881A82FB0E0FD01EE0F4E
:1015B000FF1FEA0FFB1FE059F54F2D2D2F73908170
:1015C000907C922B908360E272E06E197F0977FF26
:1015D00002C06D5F7F4F75956795759567956983B7
:1015E00040E659E0401B510B57FF02C04D5F5F4F73
:1015F00055954795559547954A836CE00E948A23F7
:101600009CE0899FB001112420E030E0A901460F41
:10161000571FFA01EE0FFF1FE40FF51FE059F54FBA
:10162000908196FD18C02F5F3F4F2C30310571F728
:1016300090E08130910521F51092800082E0809346
:1016400081001092850010928400B19A80916F0001
:10165000826080936F00888190E0FC01EE0FFF1F95
:10166000E80FF91FE059F54F8081806480838881FD
:10167000DF91CF911F910F91FF90EF90DF90089530
:101680008230910569F41092900082E0809391007D
:10169000109295001092940088BB80937100DBCF6C
:1016A0008330910569F41092A00082E08093A1003C
:1016B0001092A5001092A40089BB80937200CBCF3A
:1016C000892B49F61092200182E08093210110922B
:1016D0002501109224018ABB80937300BCCF20E6C1
:1016E00039E040E252E00C94C00AFC018081803372
:1016F00070F5918128E830E0291B310997FD339579
:10170000220F331F220F331F621773077CF0928161
:1017100028E532E0291B310997FD3395220F331F4D
:10172000220F331F621773070CF49B0122503109FB
:10173000220F331F4FB7F89490E0FC01EE0FFF1F0C
:10174000E80FF91FE059F54F328321834FBF089509
:101750004F925F926F927F92AF92BF92CF92DF9241
:10176000EF92FF920F931F93CF93DF93EC016032C0
:1017700082E078070CF040C077FD06C0653B71053C
:101780002CF064EB70E002C060E070E0898128E832
:1017900030E0281B310987FD3395220F331F220FBC
:1017A000331F5901CC24B7FCC094DC2C882777FD6B
:1017B0008095982F2A8148E552E0421B510927FD68
:1017C0005395440F551F440F551F2A01662457FC9B
:1017D0006094762C7F926F925F924F9214EBE12E81
:1017E000F12C00E010E020E030E0A9010E94172277
:1017F0000F900F900F900F90CE01DF91CF911F911E
:101800000F91FF90EF90DF90CF90BF90AF907F90BF
:101810006F905F904F900C94750BCF93DF931F9256
:10182000CDB7DEB7FC01862F60834183228361E060
:1018300029830E94091D61E02981822F0F90DF9189
:10184000CF910C94091D0F93FC011382128283E245
:1018500097E091838083648340872187028788E0B3
:1018600083870F9108951F93CF93DF93EC01162F79
:101870006C8181E09BE00E946418E091010BF09183
:10188000020B6B85612B0190F081E02D81E09BE0E4
:10189000199581E09BE0DF91CF911F910C94811805
:1018A00028E0FC01238760E00C94330C1F93CF9356
:1018B000DF93EC01162F64600E94330C81E090E00E
:1018C0000E94481C612F6B7FCE010E94330C82E383
:1018D00090E0DF91CF911F910C94481C1F93CF9300
:1018E000DF93EC01162F0E94330C612FCE01DF91A4
:1018F000CF911F910C94560CEF92FF921F93CF93B0
:10190000DF931F92CDB7DEB77C01162F607F642B6B
:1019100049830E946E0C80E1189FB0011124498117
:10192000642BC7010F90DF91CF911F91FF90EF9033
:101930000C946E0C40E00C947C0C61E00E949A0CBC
:1019400080ED97E00C94481C62E00E949A0C80EDB8
:1019500097E00C94481CFC016681262F24602683A6
:101960006C600C949A0C41E00E947C0C0895CF931B
:10197000DF93EC0181E09BE00E945A181D8289856B
:10198000823010F098E09D839A85992329F0813068
:1019900019F48D8184608D8362E370E080E090E0D3
:1019A0000E94201C6B85CE010E94330C68EE73E010
:1019B00080E090E00E94201C60E3CE010E946E0C4B
:1019C00084E991E10E94481C60E3CE010E946E0C04
:1019D00084E991E10E94481C60E3CE010E946E0CF4
:1019E00086E990E00E94481C60E2CE010E946E0CE5
:1019F0006D816062CE010E949A0C84E08E83CE01DC
:101A00000E94AB0CCE010E949D0C82E08F8366E0A9
:101A1000CE010E949A0CCE01DF91CF910C94A40CC0
:101A2000FC0166834783208781E0858708958EBD0A
:101A300000000DB407FEFDCF8EB508958CB58F7DE7
:101A40008CBD8CB5837F8CBD08950F931F93CF936E
:101A5000DF931F92CDB7DEB78C01862FF801648724
:101A600061E049830E94091D61E0F80184850E94BC
:101A7000421D4981F801458761E0842F0E94091DBC
:101A800060E0F80185850E94421DC8010F90DF913A
:101A9000CF911F910F910C941E0DEF92FF921F9307
:101AA000CF93DF931F92CDB7DEB77C01162F60E096
:101AB000FC01848549830E94421D812F8E770E94FC
:101AC000170D4981842F0E94170D61E0F70184856D
:101AD0000F90DF91CF911F91FF90EF900C94421DDA
:101AE000CF92DF92EF92FF920F931F93CF93DF93EA
:101AF0001F921F92CDB7DEB78C01E62EF42E60E068
:101B0000FC01848529833A830E94421D8E2D8E77A5
:101B10000E94170D2981E22EC22E3A81D32E8C2DE0
:101B20008E198F1530F4F60181916F010E94170D07
:101B3000F6CF61E0F80184850F900F90DF91CF918F
:101B40001F910F91FF90EF90DF90CF900C94421D6A
:101B50001F93CF93DF93EC01162F60E08C850E94DA
:101B6000421D812F8E7780680E94170D80E00E94B1
:101B7000170D182F61E08C850E94421D812FDF9187
:101B8000CF911F9108957F928F929F92AF92BF92B3
:101B9000CF92DF92EF92FF920F931F93CF93DF9339
:101BA0006C01842EE901442309F453C0162F1E77DB
:101BB000106860E0FC0184850E94421D8A94812F98
:101BC0000E94170D7C2EEC2EFD2EAA24A394B12C7E
:101BD0008E2D8719881528F581111AC00023C1F0B0
:101BE000802F912C883048F49501082E01C0220FD7
:101BF0000A94EAF7922A8F5FF5CF812F0E94170D82
:101C0000992D9095288192238921982B988305C03E
:101C1000812F0E94170DF7018083FFEFEF1AFF0A53
:101C2000D7CFC80DD11D80E00E94170D888361E0D9
:101C3000F6018485DF91CF911F910F91FF90EF9076
:101C4000DF90CF90BF90AF909F908F907F900C943B
:101C5000421DDF91CF911F910F91FF90EF90DF9088
:101C6000CF90BF90AF909F908F907F900895EF920C
:101C7000FF921F93CF93DF931F92CDB7DEB77C0106
:101C8000162F49830E94A80D4981482B612FC70157
:101C90000F90DF91CF911F91FF90EF900C944D0D1D
:101CA000EF92FF921F93CF93DF931F92CDB7DEB7D2
:101CB0007C01162F49830E94A80D49814095482335
:101CC000612FC7010F90DF91CF911F91FF90EF908F
:101CD0000C944D0DDF92EF92FF920F931F93CF93D1
:101CE000DF93EC018B01D42E790140E062E00E9489
:101CF0004D0D44E06AE0CE010E944D0D40E864E1E4
:101D0000CE010E94370E98014D2D62E1CE010E9456
:101D1000700D43E062E0CE010E944D0D08E813E132
:101D20006AE0CE010E94A80D82FD05C00150110994
:101D3000B9F784E012C040E062E0CE010E944D0D90
:101D400064E4CE010E94A80DF701808362E4CE0115
:101D50000E94A80DF701818381E0DF91CF911F914F
:101D60000F91FF90EF90DF900895CF93DF93EC01F8
:101D70004FE062E00E944D0D62E370E080E090E091
:101D80000E94201C62E0CE010E94A80D84FDFACFC3
:101D9000DF91CF910895CF93DF93EC0168E20E9429
:101DA000A80D982F9370933041F0482F436068E25C
:101DB000CE01DF91CF910C944D0DDF91CF9108951D
:101DC000CF93DF93EC018D850E94781D892B59F408
:101DD00061E08D850E94421D62E370E080E090E04A
:101DE0000E94201C03C0CE010E94B50E40E864E5AD
:101DF000CE010E944D0D49EA66E5CE010E944D0DCF
:101E000043E068E5CE010E944D0D48EE6AE5CE0143
:101E10000E944D0D40E46AE2CE010E944D0D4DE35B
:101E200062E2CE010E944D0DCE01DF91CF910C9464
:101E3000CB0E2F923F925F926F927F928F929F92E2
:101E4000AF92BF92CF92DF92EF92FF920F931F93C8
:101E5000CF93DF9300D01F92CDB7DEB73C01962E13
:101E6000542E302E082DA114B10419F0F501408133
:101E700001C040E0242EF0E10F9F200C112440E02F
:101E800062E0C3012B833C830E944D0D4FE768E065
:101E9000C3010E944D0D40E864E1C3010E94370E6A
:101EA0002B813C81432D62E1C3010E94700D422DC4
:101EB0006AE1C3010E944D0D492D62E0C3010E94F9
:101EC0004D0D8CE0981205C040E86AE1C3010E9404
:101ED000370E90ED292E97E0392E68E0C3010E945D
:101EE000A80D982F952139F480FD62C0E1E02E1AEB
:101EF000310899F75DC06CE0C3010E94A80D982ECF
:101F0000837109F057C0E114F104F1F0C114D10458
:101F1000D9F064E1C3010E94A80D482FF601808129
:101F2000841708F449C04083970162E1C3010E940D
:101F3000C30D68E1C3010E94A80D182F1770A114EA
:101F4000B10411F0F501108393FC38C0E114F104E1
:101F5000B9F1C114D104A1F1898D882389F1F60169
:101F60004081413019F4143019F420C0423010F48B
:101F700088E027C01111FCCF42509E012F5F3F4FD8
:101F8000B701C3010E946A0E8130D9F4F601808145
:101F9000E80EF11CF7013297908189819813E8CF00
:101FA000319690818A819813E3CF0AC089E009C0F5
:101FB00084E007C082E005C085E003C083E001C083
:101FC00081E00F900F900F900F90DF91CF911F91B4
:101FD0000F91FF90EF90DF90CF90BF90AF909F90C8
:101FE0008F907F906F905F903F902F9008958F9289
:101FF000AF92BF92CF92DF92EF92FF920F931F9317
:10200000AF928C2C570168017901042F9B0140E3AA
:102010006CE00E94190F0F901F910F91FF90EF90AD
:10202000DF90CF90BF90AF908F9008956F927F9286
:102030008F92AF92BF92CF92DF92EF92FF920F9367
:102040001F93CF93DF93CDB7DEB764970FB6F894A5
:10205000DEBF0FBECDBF3C01042F122FE42EF12CAA
:10206000A701CE0101960E94412621E030E02C0F0D
:102070003D1F2E0D3F1D402FBE016F5F7F4FC301DF
:102080000E946A0E813041F582E18C8B1B8A0E5FC3
:102090001F92812CCE0143965C0101966C014397FF
:1020A0007C019C0140E36CE0C3010E94190F0F907A
:1020B000112311F0843079F0813071F48C898130F2
:1020C00041F48B89843029F489818A3021F089E0B8
:1020D00003C082E001C081E064960FB6F894DEBFD1
:1020E0000FBECDBFDF91CF911F910F91FF90EF9069
:1020F000DF90CF90BF90AF908F907F906F900895BA
:102100004F925F926F927F928F929F92AF92CF92F7
:10211000EF92FF920F931F93CF93DF931F921F9223
:10212000CDB7DEB73C016A832A014901411551054B
:1021300031F1F9018081823010F140E86CE1C30196
:102140000E94500E87E08983A12CC12CCE010196FC
:102150007C018401920141E0BE016E5F7F4FC301AB
:102160000E94F70F813061F4F4018081823011F018
:1021700082E006C089818111FBCF81E001C085E04A
:102180000F900F90DF91CF911F910F91FF90EF90E3
:10219000CF90AF909F908F907F906F905F904F9077
:1021A00008959A01AB0166E20C9480102F923F9241
:1021B0004F925F926F927F928F929F92AF92BF9257
:1021C000CF92DF92EF92FF920F931F93CF93DF9303
:1021D000CDB7DEB72D970FB6F894DEBF0FBECDBFDB
:1021E0003C012B01342E20E5241708F40BC140E8F4
:1021F0006CE10E94500EBB24B39432E0B31691F010
:1022000043E0B416E1F081E0B81200C183E98983AC
:102210003320D1F041E0D2018C91853008F440E0C8
:10222000D12C17C085E98983332081F041E0F20188
:102230008081883008F440E073E0D72E0AC087E937
:10224000898366E0D62E04C0D12C02C053E0D52E7F
:1022500040E0532DF8EFDF9E500D112457FD50E064
:10226000442321F088E88B8373E001C072E091E0A1
:10227000852F877009F490E0852F85958595859544
:10228000890F21F4442311F1585F20C0442311F039
:1022900063E001C064E0861708F4682F80E090E0F6
:1022A00092012D0D311DE72FE80FA1E0B0E0AC0F3A
:1022B000BD1FAE0FB11DFD01D901A80FB91F1196A9
:1022C000AC91A0830196861770F3DCCF43E0242EF7
:1022D000503204F1B0E7BA838C819B8189279D81BC
:1022E00089279E8189278F839E01285F3F4F47E082
:1022F000BE016F5F7F4FC3015D870E946A0E5D85DF
:10230000813009F0CEC01B862A86FE0137964F0128
:1023100079E01EC0952F97709B87252F25952595D1
:10232000259582E0820F392FF0E18F9F300D112427
:102330003A8371E0911101C070E0780F8824839492
:10234000912C8C0E9D1E880E911C87E0821B8A8723
:10235000CB844C2D4295407F4C0D6AE1C3015D87D3
:102360007C870E944D0DA12C9E01255F3F4F790176
:102370008E01065F1F4F94017C85472FBE016F5F62
:102380007F4FC3010E94F70F5D858330A1F56CE19B
:10239000C3010E94A80D5D8585FD36C0482F4F7191
:1023A00009F440E2842F90E0252F332727FD309554
:1023B000281739075CF5542F019787709927242F28
:1023C0002595259525952F5F31E0811101C030E0DD
:1023D000230FE1E0F0E0EC0FFD1FE20FF11DA1E0A3
:1023E000B0E002C0AA0FBB1F8A95E2F7CD01908131
:1023F000982B90836DCF813009F053C0503244F454
:1024000050E268CF87E04DC083E04BC086E049C012
:102410008B81883819F052E044E002C053E043E079
:1024200080E090E092012D0D311DF901E80FF91FB8
:10243000652F680FA1E0B0E0AC0FBD1FA60FB11D66
:102440006C9161830196841780F38A85833031F51E
:102450008B85811123C09E012D5F3F4F41E0B40168
:10246000C3010E946A0E8130E1F49B81F4018181F5
:10247000981316C09C818281981312C0808182FFBC
:1024800002C0B394BACED2011B968C931B978B2DAE
:10249000880F8B0D8F5F8C9381E003C082E001C0B9
:1024A00088E02D960FB6F894DEBF0FBECDBFDF914A
:1024B000CF911F910F91FF90EF90DF90CF90BF9041
:1024C000AF909F908F907F906F905F904F903F90D4
:1024D0002F9008958F929F92AF92CF92EF92FF929A
:1024E0000F931F93CF93DF9300D01F92CDB7DEB72A
:1024F0004C0180E589831A829E012D5F3F4F42E0A7
:10250000BE016F5F7F4FC4010E946A0E8130B1F43B
:10251000A12CC12CE12CF12C00E010E020E030E0F7
:1025200044E0BE016F5F7F4FC4010E94F70F84300B
:1025300021F0813019F482E001C081E00F900F900A
:102540000F900F90DF91CF911F910F91FF90EF901F
:10255000CF90AF909F908F9008958F92AF92BF923F
:10256000CF92DF92EF92FF920F931F93CF93DF935F
:10257000CDB7DEB72C970FB6F894DEBF0FBECDBF38
:10258000F80169834A8389019E012D5F3F4FAE01A7
:10259000475F5F4FD8016D918D01D9016D939D010A
:1025A000A417B507B9F72181298722812A872381BA
:1025B0002B8724812C871F92812CA12CB12CC12C1C
:1025C000D12CE12CF12C0CE09E012F5F3F4F40E11C
:1025D0006EE00E94190F0F902C960FB6F894DEBF94
:1025E0000FBECDBFDF91CF911F910F91FF90EF9064
:1025F000DF90CF90BF90AF908F90089548E060E15A
:102600000C94500E8F929F92AF92CF92EF92FF92C6
:102610000F931F93CF93DF934C01EA018901209719
:10262000E9F0F90180818231C8F080E38883698311
:102630009A012E5F3F4F42E0BE01C4010E946A0E24
:10264000813069F4AA24A394C12CE12CF12C9E01C1
:1026500044E0BE01C4010E94F70F01C085E0DF9194
:10266000CF911F910F91FF90EF90CF90AF909F90DF
:102670008F9008956115710521F0413110F40C948B
:10268000161087E00895DF92EF92FF920F931F9349
:10269000CF93DF931F921F92CDB7DEB78C017A01E3
:1026A000D22E41155105B9F08FE08217A0F480EACF
:1026B00089836A8320E042E0BE016F5F7F4FC801DB
:1026C0000E941610813041F420E04D2DB701C80161
:1026D0000E943A1301C087E00F900F90DF91CF91D5
:1026E0001F910F91FF90EF90DF9008956150693036
:1026F00048F4E62FF0E0EE0FFF1FE65FF64F808113
:102700009181089587E297E0089562FD21C06930C4
:1027100079F030F4613091F068F06830D9F010C091
:10272000603170F0623140F0683151F485E0089515
:1027300083E0089586E0089587E0089588E008958D
:1027400065FD0AC0862F807466FF07C082E0089589
:102750008FEF089584E0089581E008956530E9F0F1
:1027600078F4623049F128F4613019F585E397E097
:102770000895633079F06430E1F488E997E00895D2
:10278000673089F068F0683089F06F3F91F48BEE24
:1027900097E0089581E897E0089583EA97E0089527
:1027A0008EEA97E0089580ED97E008958CED97E02C
:1027B00008958EE098E0089589E597E008952F92B6
:1027C0003F924F925F926F927F928F929F92AF92C1
:1027D000BF92CF92DF92EF92FF920F931F93CF930E
:1027E000DF93CDB7DEB76B970FB6F894DEBF0FBEA1
:1027F000CDBF5C014B013A01422E4FE1421730F050
:10280000322E330C330C54E05B8F0CC067E262173E
:1028100008F4E1C1322E329410EF312280E8380EF4
:1028200090E19B8F5B8C5A9422242394D52CD30C5B
:102830002220B1F0E9E0E41518F066ED76E002C080
:1028400067ED76E08AEC9BE00E9441204AE050E090
:10285000642D8AEC9BE00E94542163E672E002C082
:102860006BE572E08AEC9BE00E941020F9E0FD1518
:1028700030F443E64D1530F468ED76E005C066EDC2
:1028800076E002C067ED76E08AEC9BE00E94412092
:102890004AE050E06D2D8AEC9BE00E94542168E5EF
:1028A00072E08AEC9BE00E941020222019F1840142
:1028B0009301432D60E6C5010E94AD12182F8130AF
:1028C000C9F06CE372E08AEC9BE00E94102011508A
:1028D000193048F4E12FF0E0EE0FFF1FE65FF64FEE
:1028E0006081718102C067E277E08AEC9BE00E9420
:1028F000722071C152E15F8B9E01295E3F4FAE0194
:102900004F5F5F4F6D2DC5010E940213182F81305C
:10291000C9F065E272E08AEC9BE00E941020115041
:10292000193048F4E12FF0E0EE0FFF1FE65FF64F9D
:102930006081718102C067E277E08AEC9BE00E94CF
:10294000722046C1CE0101966C01F12C8601F60180
:102950008081803118F46BE178E002C068ED76E0A8
:102960008AEC9BE00E944120FFEFCF1ADF0A40E192
:1029700050E0F80160818AEC9BE00E9454218F2D89
:102980008370833031F463E272E08AEC9BE00E9452
:102990001020F394F0E1FF12D9CF222009F47DC07A
:1029A0004885242F30E064E0359527956A95E1F756
:1029B000A985BA2FBF708A2F90E074E0959587950E
:1029C0007A95E1F76F81E62FEF70F0E0E095F095F2
:1029D000EF70FF272E173F07D1F4EB2FF0E070E0E8
:1029E00050EF652754E0769567955A95E1F7E6171D
:1029F000F70781F44F7050E0409550954F70552780
:102A000061E0688F8417950739F4188E05C0E1E0FE
:102A1000E88F02C0F1E0F88F682F61704A2F417093
:102A2000498F1A8EE98DFA8DEE0FFF1FFA8FE98F0D
:102A30006E2BA90141705527440F551F440F551F98
:102A4000642B6B8BA90142705527440F551F81FBE6
:102A5000552750F9452BB2704B2B4C8B4A2F4470A5
:102A600050E055954795522F5470542B82FB4427C4
:102A700040F9542B5D8B287033273595279513E04B
:102A8000969587951A95E1F7282BA870B0E0B59533
:102A9000A795B595A7952A2B2E8BFB8DF430B9F011
:102AA000852D65E00E949623D82E43E0841781F09F
:102AB000282F30E0852D992787FD9095019665E0B8
:102AC00070E00E94A4232617370711F449C0D52CC3
:102AD0006FE172E08AEC9BE00E941020E3E1F0E0FD
:102AE000EC0FFD1FED0DF11DC080C2FA662760F9E5
:102AF0004AE050E070E08AEC9BE00E94272168EDFC
:102B000076E08AEC9BE00E944120C1FA662760F9DA
:102B10004AE050E070E08AEC9BE00E94272168EDDB
:102B200076E08AEC9BE00E9441206C2D61704AE0C7
:102B300050E070E08AEC9BE00E9427216BE172E09C
:102B40008AEC9BE00E941020688D662331F065EFCF
:102B500071E08AEC9BE00E94102053E0D51699F1B9
:102B6000E3E1F0E0EC0FFD1FED0DF11D8081813000
:102B700011F0863041F52C818B8190E0A0E0B0E02F
:102B80007C01DD24CC24F22A8981C82A8A81D82AB2
:102B90006BEE71E08AEC9BE00E94102020E130E0B7
:102BA000B701A6018AEC9BE00E94DD2063EE71E094
:102BB0008AEC9BE00E94102040E150E06D858AEC99
:102BC0009BE00E9454218AEC9BE00E944A20212C29
:102BD0005A9457FE2BCE6B960FB6F894DEBF0FBEFD
:102BE000CDBFDF91CF911F910F91FF90EF90DF90BC
:102BF000CF90BF90AF909F908F907F906F905F909D
:102C00004F903F902F900895DF92EF92FF920F9395
:102C10001F93CF93DF93EC018B0179014350433035
:102C200068F0CE010E946A12CE01DF91CF911F9110
:102C30000F91FF90EF90DF900C94FE12E42FF0E0E4
:102C4000E95FF64FD080DD2061F367E672E08AEC41
:102C50009BE00E944E20DA94D7FCE3CF2D2DA701F4
:102C6000B801CE010E94DF13F6CF9F92AF92BF92C0
:102C7000CF92DF92EF92FF920F931F93CF93DF9348
:102C8000CDB7DEB763970FB6F894DEBF0FBECDBFEA
:102C90007C0162ED71E08AEC9BE00E944E20D12C19
:102CA00082E1A82EAB8A9E012D5E3F4FAE014F5FA1
:102CB0005F4F6D2DC7010E940213182F8130C9F09C
:102CC0006BEB71E08AEC9BE00E94102011501930F0
:102CD00048F4E12FF0E0EE0FFF1FE65FF64F608152
:102CE000718102C067E277E08AEC9BE00E9472206B
:102CF00051C0C12C1C2D1D0D1A3018F068ED76E066
:102D000002C067ED76E08AEC9BE00E9441204AE039
:102D100050E0612F8AEC9BE00E94542168EB71E047
:102D20008AEC9BE00E9410209C2C990C990CB12CF1
:102D30000B2D090D10E0E1E0F0E0EC0FFD1FE00FBE
:102D4000F11F8081803118F46BE178E002C068EDFA
:102D500076E08AEC9BE00E944120E1E0F0E0EC0F9D
:102D6000FD1FE00FF11F40E150E060818AEC9BE025
:102D70000E945421B39484E0B812DACF8AEC9BE02D
:102D80000E944A20C39484E0C812B4CFD80E80E1D8
:102D9000D81288CF63960FB6F894DEBF0FBECDBFB2
:102DA000DF91CF911F910F91FF90EF90DF90CF9027
:102DB000BF90AF909F900895BF92CF92DF92EF9215
:102DC000FF920F931F93CF93DF9300D000D0CDB726
:102DD000DEB77C016B016CEF72E08AEC9BE00E9435
:102DE0001020B12CF6018081B816D0F486010B0DAD
:102DF000111DF8018181803118F46BE178E002C087
:102E000068ED76E08AEC9BE00E94412040E150E0D2
:102E1000F80161818AEC9BE00E945421B394E2CFD7
:102E20008AEC9BE00E944A20F6016385C7010E945C
:102E30008513B82E60EF72E08AEC9BE00E941020B0
:102E40006B2DC7010E94AE13BC018AEC9BE00E946F
:102E500072200B2D10E0F8013197E830F105F0F405
:102E6000EE58FF4F0C94F9239FEF99839A839B832D
:102E70009C839D839E839E012F5F3F4F4B2DB60108
:102E8000C7010E9404160AC0C7010E94351606C079
:102E900064EB72E08AEC9BE00E944E208AEC9BE09F
:102EA0000E944A20C7010E946A1226960FB6F89423
:102EB000DEBF0FBECDBFDF91CF911F910F91FF906D
:102EC000EF90DF90CF90BF900895CF93DF9300D025
:102ED000CDB7DEB722E02B83AE014D5F5F4FBE0161
:102EE0006F5F7F4F0E94D110813031F091E08330CD
:102EF00009F090E0892F01C081E00F900F900F90B2
:102F0000DF91CF91089540E0BC010E94D61091E07E
:102F1000813009F090E0892F0895CF93CFB7F894CE
:102F20008091000B811127C0E7ECF3E08491E1E888
:102F3000F3E09491E82FF0E0EE0FFF1FE45FFB4F0A
:102F4000A591B4918C91892321F461E085E30E94DD
:102F5000421D61E085E30E94091D8CB580618CBD36
:102F60008CB580648CBD61E084E30E94091D61E042
:102F700083E30E94091D8091000B8F5F8093000BFB
:102F8000CFBFCF9108958091310B90E02091320B0B
:102F9000821B910908952091320B8091310B2817E3
:102FA00050F4E22FF0E0ED5CF44F808190E02F5F71
:102FB0002093320B08958FEF9FEF0895E091320B2D
:102FC0008091310BE81730F4F0E0ED5CF44F808134
:102FD00090E008958FEF9FEF08950895CF92DF92CC
:102FE000EF92FF920F931F93CF93DF937C01CB015E
:102FF0008A0120910D0B222389F0EB016B01C40E95
:10300000D51ECC15DD0569F06991D701ED91FC91D4
:103010000190F081E02DC7011995F3CF642F0E9434
:10302000FD18C801DF91CF911F910F91FF90EF9094
:10303000DF90CF900895CF93DF931F92CDB7DEB787
:10304000698320910D0B2223D1F020910E0B2032A9
:1030500040F021E030E0FC013383228380E090E007
:1030600015C080910F0BE82FF0E0E05FF44F9981DD
:1030700090838F5F80930F0B80930E0B05C061E0F0
:10308000CE0101960E94FD1881E090E00F90DF9143
:10309000CF910895FC011382128248EE53E060E064
:1030A00070E0448355836683778380E299E091835F
:1030B000808308951092320B1092310B10920F0BF7
:1030C00010920E0B0C94881881E080930D0B609386
:1030D000300B10920F0B10920E0B08950F93062FCA
:1030E00021E040910E0B60E17BE08091300B0E946B
:1030F000A61810920F0B10920E0B10920D0B0F9141
:10310000089561E00C946E1881E09BE00C944A18DD
:103110001092C00B81E08093BE0B1092BD0B61E05A
:1031200084E10E94421D61E085E10E94421DE9EBBD
:10313000F0E080818E7F808380818D7F808388E432
:103140008093B80085E48093BC0008950F934132CA
:1031500008F04AC09091C00B9111FCCF92E090937F
:10316000C00B0093BE0B9FEF9093530B1092980BE4
:103170004093970BFB0169E97BE0DB019A2F961BDB
:10318000941718F491919D93F9CF1092BF0B9091E1
:10319000BF0B880F892B8093BF0B8091BD0B8130B3
:1031A00061F41092BD0B8091BF0B8093BB008091A6
:1031B000BC0083FDF8CF85EC01C085EE8093BC0098
:1031C000222321F08091C00B8230E1F38091530BD8
:1031D0008F3F61F08091530B803251F08091530BFF
:1031E000803341F483E007C081E005C080E003C084
:1031F00082E001C084E00F910895613298F420913B
:10320000C00B243089F46093750BFC0187E79BE0C9
:10321000DC012A2F281B261718F421912D93F9CFB2
:1032200080E0089581E0089582E0089585ED80931F
:10323000BC008091BC0084FDFCCF1092C00B0895AF
:1032400085EC8093BC001092C00B08951F920F92E2
:103250000FB60F9211240BB60F922F933F934F93FB
:103260005F936F937F938F939F93AF93BF93EF93EE
:10327000FF938091B900887F803609F49EC078F56D
:10328000883209F45DC090F4803109F456C038F4F6
:10329000882309F4F5C0883009F44FC0F5C088319F
:1032A00009F44EC0803209F45FC0EEC0803409F4E6
:1032B0006AC058F4803309F457C0883309F0E4C079
:1032C0008093530B0E942019DFC0803509F44FC052
:1032D000883509F45DC0883409F0D6C0D3C0883978
:1032E00009F4C4C0A8F4883709F467C038F48836F4
:1032F00009F463C0803709F460C0C6C0883809F497
:10330000B5C0803909F45FC0803809F0BDC05BC02A
:10331000803B09F483C038F4803A09F466C0883AE7
:1033200009F47CC0B1C0803C09F4A4C0883C09F415
:10333000A1C0883B09F487C0A7C08091BF0B10C013
:103340009091980B8091970B981770F5E091980BDE
:1033500081E08E0F8093980BF0E0E756F44F808168
:103360008093BB0085EC83C08093530B8BC0E091AE
:10337000980B81E08E0F8093980B8091BB00F0E05A
:10338000E756F44F80839091980B8091970B6BC018
:10339000E091980B81E08E0F8093980B8091BB0099
:1033A000F0E0E756F44F80838091BE0B81116AC034
:1033B00081E08093BD0B84EA5EC083E08093C00B04
:1033C0001092540BCFCF8091540B803208F04EC036
:1033D000E091540B81E08E0F8093540B8091BB00E1
:1033E000F0E0EB5AF44F8083BDCF0E94201980910A
:1033F000540B803230F4E091540BF0E0EB5AF44F70
:1034000010826091540B70E0E091B90BF091BA0B0F
:1034100085E59BE019951092540B36C084E08093AB
:10342000C00B1092760B1092750BE091BB0BF091D4
:10343000BC0B19958091750B811105C081E08093BB
:10344000750B1092770BE091760B81E08E0F8093D5
:10345000760BF0E0E958F44F80818093BB009091A7
:10346000760B8091750B981708F47CCF85E88093D4
:10347000BC000AC085EC8093BC001092C00B04C055
:103480001092530B0E941619FF91EF91BF91AF91CB
:103490009F918F917F916F915F914F913F912F916C
:1034A0000F900BBE0F900FBE0F901F9018954F926C
:1034B0005F926F927F928F92AF92BF92CF92DF9284
:1034C000EF92FF920F931F93CF93DF93EC013A019A
:1034D000862E29015C018CE0A80EB11C61ED79E01B
:1034E000C5010E94CC22CE0142960E94A40A1F8AE6
:1034F0001882198281E08A831B866CE279E0C5011B
:103500000E9402235C824B821E830D83F886EF8229
:10351000DA86C9866A8A7B8A8C8ADF91CF911F916D
:103520000F91FF90EF90DF90CF90BF90AF908F9072
:103530007F906F905F904F90089521E0FC0122836F
:10354000089521E0FC0120830895CF93DF93EC01DF
:1035500061E379E08AEC9BE00E94722081E089833C
:10356000DF91CF910895CF93DF93EC0168E479E088
:103570008AEC9BE00E9472201982DF91CF9108951E
:10358000CF93DF93EC018B810E94781D019711F49A
:10359000188202C081E088838881DF91CF910895ED
:1035A000FC0181810895FC0182810895CF93DF930E
:1035B000EC010E94C01A882319F08A81882321F027
:1035C0008B85DF91CF91089581E08B876EE579E05F
:1035D000CE010C960E940223F3CFCF93DF93EC0130
:1035E000645F7F4F0E94F922CE01DF91CF91089551
:1035F0001F93CF93DF93EC011B85112331F061ED15
:1036000079E00C960E9402231B86812FDF91CF91D7
:103610001F910895FC01768B658B21E0278B08951F
:10362000FC018789882341F0662311F061E001C025
:1036300060E085890C94421D0895CF93DF93EC01DF
:1036400061E00E94101B61E879E08AEC9BE00E9437
:1036500041206F8178854AE050E08AEC9BE00E942F
:10366000272167E979E08AEC9BE00E94722061E003
:103670008D810E94421D6AE070E080E090E00E942F
:10368000201C6F817885CE0142960E94A80B68EEBF
:1036900073E080E090E00E94201C60E08D810E9439
:1036A000421D1A8268EA79E08AEC9BE00E9472204F
:1036B00060E0CE01DF91CF910C94101BCF93DF938C
:1036C000EC0161E00E94101B61E879E08AEC9BE06C
:1036D0000E94412069857A854AE050E08AEC9BE0AF
:1036E0000E9427216EEA79E08AEC9BE00E9472201A
:1036F00061E08D810E94421D6AE070E080E090E010
:103700000E94201C69857A85CE0142960E94A80BF2
:1037100068EE73E080E090E00E94201C60E08D8104
:103720000E94421D81E08A8368EA79E08AEC9BE08E
:103730000E9472201B8661ED79E0CE010C960E94FA
:10374000022360E0CE01DF91CF910C94101B1F92F9
:103750000F920FB60F9211242F933F938F939F9345
:10376000AF93BF938091C20B9091C30BA091C40BF8
:10377000B091C50B3091C10B23E0230F2D3720F4FE
:103780000196A11DB11D05C026E8230F0296A11DBB
:10379000B11D2093C10B8093C20B9093C30BA093D8
:1037A000C40BB093C50B8091C60B9091C70BA09131
:1037B000C80BB091C90B0196A11DB11D8093C60B1A
:1037C0009093C70BA093C80BB093C90BBF91AF9157
:1037D0009F918F913F912F910F900FBE0F901F904F
:1037E00018952FB7F8946091C20B7091C30B80911C
:1037F000C40B9091C50B2FBF08953FB7F8948091EB
:10380000C60B9091C70BA091C80BB091C90B26B500
:10381000A89B05C02F3F19F00196A11DB11D3FBF08
:103820006627782F892F9A2F620F711D811D911D98
:1038300042E0660F771F881F991F4A95D1F70895B8
:10384000CF92DF92EF92FF92CF93DF936B017C01D7
:103850000E94FD1BEB01C114D104E104F10489F0C5
:103860000E9479230E94FD1B6C1B7D0B683E7340F8
:1038700090F381E0C81AD108E108F108C851DC4F83
:10388000EACFDF91CF91FF90EF90DF90CF90089536
:103890008230910538F0880F991F880F991F05977E
:1038A0000197F1F70895789484B5826084BD84B55A
:1038B000816084BD85B5826085BD85B5816085BD2B
:1038C000EEE6F0E0808181608083E1E8F0E0108244
:1038D000808182608083808181608083E0E8F0E085
:1038E000808181608083E1EBF0E08081846080836F
:1038F000E0EBF0E0808181608083E1E9F0E08081AD
:1039000082608083808181608083E0E9F0E0808153
:1039100081608083E1EAF0E0808182608083808141
:1039200081608083E0EAF0E0808181608083E1E271
:10393000F1E0808182608083808181608083E0E229
:10394000F1E0808181608083EAE7F0E0808184603B
:103950008083808182608083808181608083808198
:10396000806880831092C100089590E0FC01319737
:10397000E231F10508F04CC0E658FF4F0C94F923F2
:10398000809180008F7703C0809180008F7D80932D
:103990008000089580918000877FF9CF84B58F776C
:1039A00002C084B58F7D84BD08958091B0008F776B
:1039B00003C08091B0008F7D8093B0000895809106
:1039C00090008F7707C0809190008F7D03C0809119
:1039D0009000877F8093900008958091A0008F775A
:1039E00007C08091A0008F7D03C08091A000877FD9
:1039F0008093A0000895809120018F7707C0809167
:103A000020018F7D03C080912001877F809320015A
:103A10000895CF93DF9390E0FC01E45BFC4F249189
:103A2000FC01EE56FC4F8491882349F190E0880F09
:103A3000991FFC01E45FFB4FA591B4918E509C4F00
:103A4000FC01C591D4919FB7611108C0F8948C9185
:103A5000209582238C93888182230AC0623051F49E
:103A6000F8948C91322F309583238C938881822B0C
:103A7000888304C0F8948C91822B8C939FBFDF9134
:103A8000CF9108950F931F93CF93DF931F92CDB7DC
:103A9000DEB7282F30E0F901EA5FFC4F8491F9018D
:103AA000E45BFC4F1491F901EE56FC4F04910023A6
:103AB000C9F0882321F069830E94B51C6981E02F39
:103AC000F0E0EE0FFF1FEE50FC4FA591B4919FB7B1
:103AD000F8948C91611103C01095812301C0812B52
:103AE0008C939FBF0F90DF91CF911F910F910895FD
:103AF000CF93DF93282F30E0F901EA5FFC4F8491E8
:103B0000F901E45BFC4FD491F901EE56FC4FC491EE
:103B1000CC2391F081110E94B51CEC2FF0E0EE0F48
:103B2000FF1FE852FC4FA591B4912C912D2381E009
:103B300090E021F480E002C080E090E0DF91CF913E
:103B40000895FC01818D228D90E0805C9F4F821B47
:103B500091098F7399270895FC01918D828D981793
:103B600031F0828DE80FF11D858D90E008958FEF83
:103B70009FEF0895FC01918D828D981761F0828DE1
:103B8000DF01A80FB11D5D968C91928D9F5F9F7391
:103B9000928F90E008958FEF9FEF089585E79FE162
:103BA000892B41F082E994E0892B21F00E94751F56
:103BB000811125C080E090E0892B41F080E090E009
:103BC000892B21F00E94000081111CC080E090E050
:103BD000892B41F080E090E0892B21F00E940000C9
:103BE000811113C080E090E0892BA1F080E090E08B
:103BF000892B81F00E94000081110AC008950E9463
:103C00009204D8CF0E940000E1CF0E940000EACFCA
:103C10000C9400000895FC01848DDF01A80FB11DF4
:103C2000A35ABF4F2C91848D90E001968F739927F2
:103C3000848FA689B7892C93A089B1898C918064DF
:103C40008C93938D848D981306C00288F389E02DA0
:103C500080818F7D80830895CF93DF93EC01888DE1
:103C60008823C9F0EA89FB89808185FD05C0A88980
:103C7000B9898C9186FD0FC00FB607FCF5CF808106
:103C800085FFF2CFA889B9898C9185FFEDCFCE0150
:103C90000E940B1EE7CFDF91CF910895CF92DF9264
:103CA000FF920F931F93CF93DF931F92CDB7DEB791
:103CB0006C0181E0D60158968C9358975B969C9145
:103CC0005B975C968C915C97981307C05096ED912A
:103CD000FC915197808185FD2EC0F601038D10E087
:103CE0000F5F1F4F0F731127F02EF601848DF8120E
:103CF00011C00FB607FCF9CFD6015096ED91FC919B
:103D00005197808185FFF1CFC60169830E940B1E08
:103D10006981EBCF838DE80FF11DE35AFF4F60837C
:103D2000D6015B960C935B975296ED91FC9153975D
:103D3000808180620CC0D6015696ED91FC91579718
:103D400060835096ED91FC915197808180648083CF
:103D500081E090E00F90DF91CF911F910F91FF9044
:103D6000DF90CF900895BF92CF92DF92EF92FF92B3
:103D7000CF93DF93EC016A017B01B22EE889F989C8
:103D800082E08083411581EE580761057105A1F03D
:103D900060E079E08DE390E0A70196010E94B823EE
:103DA0002150310941095109569547953795279575
:103DB000211580E1380798F0E889F989108260E8D8
:103DC00074E88EE190E0A70196010E94B82321508B
:103DD0003109410951095695479537952795EC8545
:103DE000FD853083EE85FF852083188EEC89FD8963
:103DF000B082EA89FB89808180618083EA89FB89BE
:103E0000808188608083EA89FB89808180688083E3
:103E1000EA89FB8980818F7D8083DF91CF91FF903C
:103E2000EF90DF90CF90BF9008951F920F920FB642
:103E30000F9211240BB60F922F938F939F93EF93B2
:103E4000FF93E091DA0BF091DB0B8081E091E00BC6
:103E5000F091E10B82FD12C090818091E30B8F5FA6
:103E60008F732091E40B821751F0E091E30BF0E0A7
:103E7000E653F44F958F8093E30B01C08081FF914F
:103E8000EF919F918F912F910F900BBE0F900FBECE
:103E90000F901F9018951F920F920FB60F9211243A
:103EA0000BB60F922F933F934F935F936F937F9334
:103EB0008F939F93AF93BF93EF93FF938AEC9BE015
:103EC0000E940B1EFF91EF91BF91AF919F918F9137
:103ED0007F916F915F914F913F912F910F900BBE0A
:103EE0000F900FBE0F901F9018958AEC9BE00E94D8
:103EF000A11D21E0892B09F420E0822F0895109262
:103F0000CD0B1092CC0B88EE93E0A0E0B0E0809354
:103F1000CE0B9093CF0BA093D00BB093D10B83EC2F
:103F200099E09093CB0B8093CA0B85EC90E0909333
:103F3000D70B8093D60B84EC90E09093D90B8093B1
:103F4000D80B80EC90E09093DB0B8093DA0B81EC44
:103F500090E09093DD0B8093DC0B82EC90E09093EB
:103F6000DF0B8093DE0B86EC90E09093E10B809367
:103F7000E00B1092E30B1092E40B1092E50B109201
:103F8000E60B089508950E94531C0E94C21F0E94D0
:103F90004A02CEECDDE10E94EF062097E1F30E9499
:103FA000CE1DF9CFCF92DF92EF92FF920F931F9326
:103FB000CF93DF937C016A01EB0100E010E00C1568
:103FC0001D0571F06991D701ED91FC910190F0818F
:103FD000E02DC7011995892B19F00F5F1F4FEFCF07
:103FE000C801DF91CF911F910F91FF90EF90DF906B
:103FF000CF9008956115710581F0DB010D900020CF
:10400000E9F7AD0141505109461B570BDC01ED9119
:10401000FC910280F381E02D199480E090E00895F6
:10402000EF92FF920F931F93CF93DF938C017B014D
:10403000C0E0D0E0F701EC0FFD1F6491662359F05A
:10404000F801A081B181ED91FC91C8011995892BEE
:1040500011F02196EFCFCE01DF91CF911F910F91FB
:10406000FF90EF900895DC01ED91FC91DB01149637
:104070004D915C9115976D917C910280F381E02DBB
:1040800019940C94FA1FDC01ED91FC910190F081E0
:10409000E02D19946FEC79E00C94FA1F0F931F93A5
:1040A000CF93DF93EC010E9410208C01CE010E947F
:1040B0004A20800F911FDF91CF911F910F9108959A
:1040C0000F931F93CF93DF93EC010E9433208C0159
:1040D000CE010E944A20800F911FDF91CF911F9146
:1040E0000F9108950F931F93CF93DF93EC010E94DC
:1040F000FA1F8C01CE010E944A20800F911FDF9190
:10410000CF911F910F9108958F929F92AF92BF927E
:10411000CF92DF92EF92FF920F931F93CF93DF9393
:10412000CDB7DEB7A1970FB6F894DEBF0FBECDBFF7
:104130007C01C42EE52FCB01D22E19A221E02D1532
:1041400010F02AE0D22E8E010F5D1F4F8D2C912C86
:10415000A12CB12C6C2D7E2FA50194010E94B823B7
:104160008C2DD29E80191124015011098A3014F42B
:10417000805D01C0895CF80180832115310541050E
:10418000510521F0C22EE32FCA01E4CFB801C701C7
:104190000E94FA1FA1960FB6F894DEBF0FBECDBFE6
:1041A000DF91CF911F910F91FF90EF90DF90CF9013
:1041B000BF90AF909F908F900895CF92DF92EF9233
:1041C000FF920F931F93CF93DF93EC016A017B0162
:1041D0002115310579F4E881F9810190F081E02D14
:1041E000642FDF91CF911F910F91FF90EF90DF909F
:1041F000CF9019942A303105E9F477FF1AC06DE2A7
:104200000E9443208C0144275527BA014C195D09AF
:104210006E097F092AE0CE010E948420800F911F41
:10422000DF91CF911F910F91FF90EF90DF90CF9092
:1042300008952AE0B701A601CE01DF91CF911F9129
:104240000F91FF90EF90DF90CF900C9484209A0113
:10425000AB01662757FD6095762F0C94DD200F93F8
:104260001F93CF93DF93EC019A01AB01662757FDB3
:104270006095762F0E94DD208C01CE010E944A209D
:10428000800F911FDF91CF911F910F9108952115FC
:10429000310541F4DC01ED91FC910190F081E02DBC
:1042A000642F19940C9484209A01462F50E060E00A
:1042B00070E00C9447210F931F93CF93DF93EC0191
:1042C0000E94F11B688779878A879B87E881F9813B
:1042D0000084F185E02DCE01199597FF15C00E944D
:1042E000F11B088519852A853B85601B710B820BA4
:1042F000930B0C811D812E813F816017710782070E
:10430000930720F38FEF9FEFDF91CF911F910F91D4
:104310000895CF93DF93EC01CE010E945B2197FDBE
:1043200011C08D32910571F09C01205331092A3062
:10433000310540F0E881F9810680F781E02DCE015A
:104340001995EACFDF91CF910895CF92DF92FF9236
:104350000F931F93CF93DF9300D01F92CDB7DEB79B
:104360006C01062F0E948921FC0197FD4BC020E0C3
:1043700030E0A901F12C112707FD1095E017F10796
:10438000E9F0ED32F105C1F0CF01C0970A97B0F422
:10439000AAE0B0E00E94FF239B01AC01CF01AA2755
:1043A00097FDA095BA2F280F391F4A1F5B1F205376
:1043B00031094109510902C0FF24F394D601ED915E
:1043C000FC910680F781E02DC60129833A834B8357
:1043D0005C831995C6010E945B21FC01C09729816D
:1043E0003A814B815C810A9748F2E017F10731F27C
:1043F000FF2061F066277727CB01621B730B840BCC
:10440000950B06C060E070E0CB0102C0CA01B901A3
:104410000F900F900F900F90DF91CF911F910F9100
:10442000FF90DF90CF90089561E00C94A5214F920A
:104430005F926F927F92AF92BF92CF92DF92EF9294
:10444000FF920F931F93CF93DF93CDB7DEB7290170
:104450003A01621B730B840B950B2A893B894C89AB
:104460005D892A193B094C095D092A8B3B8B4C8BD2
:104470005D8B9B01AC016A897B898C899D890E9437
:104480007A23E418F50806091709A80197010E9484
:10449000DA232A0D3B1D4C1D5D1DCA01B901DF91B8
:1044A000CF911F910F91FF90EF90DF90CF90BF9031
:1044B000AF907F906F905F904F900895FC01808146
:1044C00091810C94C924CF93DF93EC018881998169
:1044D000009711F00E94C924198218821D821C8243
:1044E0001B821A82DF91CF9108950F931F93CF9370
:1044F000DF93EC018B016F5F7F4F888199810E9470
:104500005825009731F0998388831B830A8381E0C3
:1045100001C080E0DF91CF911F910F910895CF935B
:10452000DF93EC0188819981892B29F08A819B8115
:104530008617970760F4CE010E947522882341F008
:104540008C819D81892B19F4E881F981108281E0A9
:10455000DF91CF910895EF92FF920F931F93CF9326
:10456000DF93EC017B018A01BA010E948F22811145
:1045700004C0CE010E94632207C01D830C83B701D3
:10458000888199810E945326CE01DF91CF911F919E
:104590000F91FF90EF900895FC0111821082138219
:1045A0001282158214826115710559F0FB01019088
:1045B0000020E9F7AF0141505109461B570B0C94FD
:1045C000AB220895CF93DF93EC01FB018617970789
:1045D00061F0608171816115710529F04481558117
:1045E0000E94AB2202C00E946322CE01DF91CF91D4
:1045F0000895FC01118210821382128215821482A6
:104600000C94E222CF93DF93EC016115710561F008
:10461000FB0101900020E9F7AF0141505109461B11
:10462000570B0E94AB2202C00E946322CE01DF9191
:10463000CF910895EF92FF920F931F93CF93DF9343
:10464000EC017B010C811D816115710511F480E085
:1046500016C04115510591F0040F151FB8010E94B5
:104660008F228823A1F3288139818C819D81B70114
:10467000820F931F0E9453261D830C8381E0DF91DC
:10468000CF911F910F91FF90EF900895CF93DF93FB
:104690001F921F92CDB7DEB769831A8241E050E0C6
:1046A000BE016F5F7F4F0E941A230F900F90DF9122
:1046B000CF910895FC0124813581232B31F421E031
:1046C00061157105A1F0FB0108C0FC018081918199
:1046D0006115710531F421E0FC018081882339F0F6
:1046E00005C00E944A2621E0892B09F020E0822F94
:1046F00008950895DB018F939F930E94FF23BF913C
:10470000AF91A29F800D911DA39F900DB29F900D20
:1047100011240895991B79E004C0991F961708F099
:10472000961B881F7A95C9F78095089587FB082EF8
:10473000062687FD819567FD61950E948A230EF408
:10474000919507FC8195089597FB072E16F4009428
:1047500007D077FD09D00E940E2407FC05D03EF457
:10476000909581959F4F0895709561957F4F08951D
:10477000A1E21A2EAA1BBB1BFD010DC0AA1FBB1F65
:10478000EE1FFF1FA217B307E407F50720F0A21BD7
:10479000B30BE40BF50B661F771F881F991F1A9444
:1047A00069F760957095809590959B01AC01BD016E
:1047B000CF010895052E97FB1EF400940E94F1236B
:1047C00057FD07D00E94B82307FC03D04EF40C9489
:1047D000F12350954095309521953F4F4F4F5F4FB6
:1047E000089590958095709561957F4F8F4F9F4F5D
:1047F0000895EE0FFF1F0590F491E02D19940E948B
:104800002224A59F900DB49F900DA49F800D911D13
:10481000112408950790F691E02D1994AA1BBB1B53
:1048200051E107C0AA1FBB1FA617B70710F0A61BB0
:10483000B70B881F991F5A95A9F780959095BC01D1
:10484000CD010895A29FB001B39FC001A39F700D39
:10485000811D1124911DB29F700D811D1124911D88
:104860000895CF93DF938230910510F482E090E0B9
:10487000E091690CF0916A0C20E030E0A0E0B0E03B
:10488000309739F14081518148175907B8F04817DE
:10489000590771F482819381109729F013969C93A4
:1048A0008E9312972CC090936A0C8093690C27C04A
:1048B0002115310531F04217530718F0A901DB012A
:1048C00001C0EF019A01BD01DF010280F381E02DFB
:1048D000D7CF21153105F9F0281B390B24303105CC
:1048E00080F48A819B816115710521F0FB0193831E
:1048F000828304C090936A0C8093690CFE01329607
:1049000044C0FE01E20FF31F8193919322503109BD
:10491000398328833AC02091670C3091680C232B8F
:1049200041F420910202309103023093680C2093ED
:10493000670C20910002309101022115310541F4EC
:104940002DB73EB74091040250910502241B350B50
:10495000E091670CF091680CE217F307A0F42E1BAE
:104960003F0B2817390778F0AC014E5F5F4F2417D3
:10497000350748F04E0F5F1F5093680C4093670C4B
:104980008193919302C0E0E0F0E0CF01DF91CF91FD
:104990000895CF93DF93009709F487C0FC01329705
:1049A00013821282C091690CD0916A0C209781F415
:1049B00020813181280F391F8091670C9091680CFC
:1049C0008217930779F5F093680CE093670C6DC03C
:1049D000DE0120E030E0AE17BF0750F412964D9193
:1049E0005C9113979D014115510509F1DA01F3CF4F
:1049F000B383A28340815181840F951F8A179B073F
:104A000071F48D919C911197840F951F029691835B
:104A1000808312968D919C911397938382832115A5
:104A2000310529F4F0936A0CE093690C3EC0D9017A
:104A30001396FC93EE9312974D915D91A40FB51FC1
:104A4000EA17FB0779F480819181840F951F029604
:104A5000D90111969C938E938281938113969C9396
:104A60008E931297E0E0F0E08A819B81009719F025
:104A7000FE01EC01F9CFCE01029628813981820F27
:104A8000931F2091670C3091680C2817390769F43F
:104A9000309729F410926A0C1092690C02C01382AC
:104AA0001282D093680CC093670CDF91CF91089568
:104AB0006F927F928F929F92AF92BF92CF92DF922E
:104AC000EF92FF920F931F93CF93DF93EC01CB01F3
:104AD000209781F4DF91CF911F910F91FF90EF907C
:104AE000DF90CF90BF90AF909F908F907F906F900E
:104AF0000C943124FE01E60FF71F9E01225031096C
:104B0000E217F30708F4ACC0D9010D911C9111977D
:104B100006171707B8F00530110508F49FC0A80163
:104B2000445051094617570708F498C0025011091C
:104B3000061B170B019311936D937C93CF010E9479
:104B4000C9248CC05B01A01AB10A4E01800E911ECF
:104B5000A091690CB0916A0C612C712C60E070E03E
:104B6000109709F449C0A815B905C9F5ED90FC9056
:104B70001197670142E0C40ED11CCA14DB0478F11E
:104B800047018A189B08640142E0C40ED11C1296AA
:104B9000BC9012971396AC91B5E0CB16D10440F0BF
:104BA000B282A38391828082D9018D939C9309C0A4
:104BB0000E5F1F4F0E0D1F1DF90111830083EB2D9A
:104BC000FA2F6115710531F0DB011396FC93EE931A
:104BD000129744C0F0936A0CE093690C3FC06D914A
:104BE0007C9111976616770608F43B01BD01129679
:104BF0000D90BC91A02DB4CF6091670C7091680CA2
:104C000068157905E9F468167906D0F44091000238
:104C1000509101024115510541F44DB75EB76091C5
:104C2000040270910502461B570BE417F507C0F408
:104C3000F093680CE093670CF901918380830EC0B8
:104C40000E9431247C01009759F0A801BE010E9406
:104C50004126CE010E94C924C70104C0CE0102C072
:104C600080E090E0DF91CF911F910F91FF90EF9046
:104C7000DF90CF90BF90AF909F908F907F906F907C
:104C80000895FB01DC0102C001900D92415050409B
:104C9000D8F70895FB01DC018D9101908019011076
:104CA000D9F3990B0895FB01DC0101900D920020CE
:104CB000E1F7089514E0CCE2D4E000E006C02297CA
:104CC0000109FE010BBF0E940A24CE32D10780E009
:084CD0000807A9F7F894FFCFD3
:104CD80000006B0C8000010000000A003732385ACF
:104CE80065737441706172745F5F5F0032003D00EC
:104CF8005363616E2061204D494641524520436C03
:104D08006173736963206361726400446F6F72201A
:104D1800697320436C6F73656420616E64204C6F07
:104D2800636B656400446F6F72206973204F706510
:104D38006E20616E6420556E6C6F636B656400480D
:104D4800656C6C6F2C20576F726C64203141004881
:104D5800656C6C6F2C20576F726C64203242005265
:104D68006561647920666F7220636F6D6D616E6432
:104D780073005043445F41757468656E746963617C
:104D880074652829206661696C65642028726561EC
:104D980064293A20004D49464152455F7265616475
:104DA8002829206661696C65643A200020697320AF
:104DB8006120747261696C657220626C6F636B3A12
:104DC800002069732061206461746120626C6F63E4
:104DD8006B3A005043445F41757468656E7469634B
:104DE8006174652829206661696C65643A20004D04
:104DF80049464152455F57726974652829206661A2
:104E0800696C65643A2000626C6F636B207761732C
:104E1800207772697474656E0041757468656E7484
:104E280069636174696F6E204D6973736D61746332
:104E3800683A20413D200020423D2000205B695D0A
:104E48003D20003135202B204E554C4C20427974A2
:104E580065732052656365697665643A2028415315
:104E6800434949293A20005265616420426C6F63C6
:104E78006B204E756D6265723A20005772697465D1
:104E880020426C6F636B204E756D6265723A20002C
:104E9800536572766F205265636569766564207321
:104EA8006572766F446F6F72416E676C655B005D0B
:104EB80000537472696E672052656365697665642C
:104EC8003A20007772697465007700436172642044
:104ED80057726974696E67204F6E0043617264206F
:104EE80057726974696E67204F6666004361726421
:104EF8002044756D70204F6E0043617264204475C4
:104F08006D70204F6666007773005772697465206C
:104F1800537472696E672069733A2000776E005780
:104F28007269746520426C6F636B204E756D6265A3
:104F3800722069733A20006C004C6F636B696E676E
:104F480020536572766F2E2E2E006F004F46460056
:104F58004F4E002052656C61792050696E23002FF6
:104F6800680064756D70007772697465537472694E
:104F78006E670077726974654E756D006C6F636B50
:104F8800006F70656E004F70656E696E67205365BF
:104F980072766F2E2E2E0068656C70005475726ED6
:104FA800696E672000444F4F5220434F4E54524F72
:104FB8004C203230313620563120427920536561F9
:104FC8006E205A656E6700436F6D6D616E64733A4B
:104FD800002352464944535452494E4720245345CE
:104FE80052564F414E474C455B335D202552454153
:104FF80044424C4F434B4E554D424552205E57520A
:10500800495445424C4F434B4E554D42455200770B
:10501800726974652C2064756D702C2077726974C0
:1050280065537472696E672C2077726974654E7562
:105038006D2C206C6F636B2C206F70656E2C20724A
:10504800656C6179004552524F5220434F4D4D4196
:105058004E4420554E4B4E4F574E3A2000427574E1
:10506800746F6E2057617320507265737365642C7A
:105078002054696D696E672E2E2E0054696D656423
:105088003A20006D7300446F6F72206973204F706F
:10509800656E2C20416C61726D2077696C6C207391
:1050A8006F756E6420696E2036307300414C414D37
:1050B8002050494E20534554204849474800446FE2
:1050C8006F722053686F756C6420426520436C6F63
:1050D8007365642C20456C736520537461794F7037
:1050E800656E2053686F756C642062652053657423
:1050F80000446F6F7220697320636C6F7365642C52
:105108002077696C6C206265206175746F206C6F04
:10511800636B656420696E20322E357300436172BB
:1051280064204465746563746564204175746865BA
:105138006E7469636174696E672E2E00536F6D65B6
:105148007468696E672057656E742057726F6E6752
:10515800205768656E2052656164696E67205549FD
:105168004400436172642049443A2000426C6F63F2
:105178006B20202030202031202032202033202096
:1051880020342020352020362020372020203820A9
:105198002039203130203131202031322031332064
:1051A8003134203135002020200052656164696E59
:1051B800672E2E2E00436172642041757468656EF7
:1051C800746963617465640043617264204E6F742E
:1051D8002041757468656E7469636174656400471D
:1051E8006F6F646C75636B3A295F5F5F5F5F000088
:1051F800000000B30CD21F556E6B6E6F776E206582
:1052080072726F72005049434320636F6D706C690E
:10521800616E7420776974682049534F2F4945435C
:105228002031343434332D34005049434320636FE4
:105238006D706C69616E7420776974682049534F8A
:105248002F49454320313830393220284E464329EA
:10525800004D4946415245204D696E692C20333234
:1052680030206279746573004D49464152452031BA
:105278004B42004D494641524520344B42004D496E
:105288004641524520556C7472616C696768742098
:105298006F7220556C7472616C6967687420430082
:1052A8004D494641524520506C7573004D49464161
:1052B800524520544E50335858580053414B20699A
:1052C8006E6469636174657320554944206973206D
:1052D8006E6F7420636F6D706C6574652E00556E0B
:1052E8006B6E6F776E20747970650020300053758F
:1052F80063636573732E004572726F7220696E2046
:10530800636F6D6D756E69636174696F6E2E0043AE
:105318006F6C6C697373696F6E2064657465637410
:1053280065642E0054696D656F757420696E20631D
:105338006F6D6D756E69636174696F6E2E004120C3
:10534800627566666572206973206E6F7420626983
:105358006720656E6F7567682E00496E7465726E9A
:10536800616C206572726F7220696E2074686520A6
:10537800636F64652E2053686F756C64206E6F745C
:105388002068617070656E2E00496E76616C696484
:1053980020617267756D656E742E005468652043D0
:1053A80052435F4120646F6573206E6F74206D6196
:1053B8007463682E0041204D4946415245205049AA
:1053C800434320726573706F6E64656420776974F7
:1053D80068204E414B2E000510281E0827083F085C
:1053E80054086E088A08B908CB08E50800000000D0
:1053F8001B18EE17C317CB17DE17ED174E6F6E6528
:1054080000446F6F72206175746F6C6F636B2064FA
:10541800697361626C656400446F6F7220617574B2
:105428006F6C6F636B20656E61626C6564004552DA
:10543800524F523A20446F6F72204F70656E2C2085
:1054480053686F756C64206265206C6F636B65646C
:105458000053656E64696E6720536572766F2061CC
:105468006E676C653A200020546F204C4F434B20E8
:10547800446F6F722E2E2E00444F4E45210020544B
:105488006F204F50454E20446F6F722E2E2E000015
:105498000000004E1ED21FA11DBA1DAC1D2C1E0DF2
:0E54A8000A006E616E00696E66006F76660027
:00000001FF
